:020000040800F2
:1000000088050020050100086F1D0008651B000819
:100010006D1D0008DD020008A52100080000000099
:10002000000000000000000000000000731D000838
:10003000A304000800000000711D0008751D0008E1
:100040001F0100081F0100081F0100081F01000810
:100050001F0100081F0100081F0100081F01000800
:100060001F0100081F0100081F0100081F010008F0
:100070001F0100081F0100081F0100081F010008E0
:100080001F0100081F0100081F0100081F010008D0
:100090001F0100081F0100081F0100081F010008C0
:1000A0001F0100081F0100081F0100081F010008B0
:1000B0001F0100081F0100081F0100081F010008A0
:1000C0001F0100081F0100081F0100081F01000890
:1000D0001F010008992100081F0100081F010008E6
:1000E0001F0100081F0100081F010008DFF810D0E1
:1000F00000F042F800480047A5230008AFF3008055
:10010000880500200648804706480047FEE7FEE7CE
:10011000FEE7FEE7FEE7FEE7FEE7FEE7FEE7FEE7B7
:10012000F31D0008ED000008D2B201E000F8012B39
:10013000491EFBD270470022F6E710B513460A4667
:1001400004461946FFF7F0FF204610BD30B50B46B8
:10015000014600202022012409E021FA02F59D42F7
:1001600005D303FA02F5491B04FA02F52844151ECB
:10017000A2F10102F1DC30BD064C074D06E0E0685B
:1001800040F0010394E8070098471034AC42F6D3DE
:10019000FFF7B0FF642500088425000870B5044609
:1001A00000688168C943C90716D1816821F001013F
:1001B000816000F0A1FD054609E000F09DFD401BB7
:1001C000022804D920688068C043C00706D0206890
:1001D0008068C043C007F0D0002070BDA06A40F026
:1001E0001000A062E06A40F00100E062012070BDF2
:1001F00010B50146406A826A12F0500F05D0006ABD
:10020000026BBDE8104008461047816A41F4007156
:10021000816201688968C1F3424107290CD1017BE1
:1002200051B9816A21F480718162816AC90403D461
:10023000816A41F00101816200F020FA10BD10B521
:10024000406A816A41F040018162C16A41F0040163
:10025000C16200F015FA10BD10B5406A00F00FFA47
:1002600010BD0000F8B500260446009600688168BD
:10027000C943C9072CD0816841F00101816015484C
:1002800015490068B0FBF1F000E0401E0090002826
:10029000FBD100F031FD054615E000F02DFD401BBF
:1002A000022810D920688068C043C0070BD0A06A1C
:1002B00040F01000A062E06A40F00100E06284F8C3
:1002C00024600120F8BD20688068C043C007E4D1E5
:1002D0000020F8BD1800002040420F00FEE700009B
:1002E00070B5002400F028F8124D04E0641CE4B25C
:1002F000012002F033F80121284600F0EBFC10B198
:10030000642CF3D30FE0642C0DD2002404E0641CB1
:10031000E4B2012002F022F80121284600F0DAFCC4
:1003200018B1642C04D3012070BD642CEFD3FAE71C
:10033000002070BD000801401FB500200190029010
:1003400001200090032003906946024800F0DCFB86
:100350001FBD0000000801401FB501200090019062
:100360000290032003906946014800F0CDFB1FBDB9
:100370000008014010B500F067F8BDE81040FFF735
:10038000AFBF000070B50024134D04E0641CE4B25C
:10039000012001F0E3FF0121284600F09BFC08B199
:1003A000642CF3D3002404E0641CE4B2012001F0C7
:1003B000D5FF0121284600F08DFC08B9642CF3D349
:1003C000282001F0CBFF0121284600F083FC002803
:1003D00000D0012070BD00000008014070B5002071
:1003E00004464006050EFFF7CDFF641C2843E4B227
:1003F000082CF6D370BD2DE9FC410E46074600F0EF
:1004000023F8FFF76DFF10B10120BDE8FC81002447
:100410006D46FFF7E3FF2855641CE4B2052CF8D3C2
:100420009DF800009DF801109DF8033042189DF8DA
:1004300002100B441A449DF804309A4201D13070E6
:1004400039700020E1E7000010B5FFF785FF094C87
:1004500000220121204600F04AFC122000F042FB5D
:1004600001221146204600F042FCBDE810401E204B
:1004700001F074BF0008014030B590F840500124ED
:10048000AC40C56B6C60046863604368102B036804
:1004900003D099600068C26030BD9A600068C16096
:1004A00030BD704772B6FEE7F8B5002604460096E8
:1004B00090F8240001280BD0012084F82400204665
:1004C000FFF76CFE2046FFF7CDFE070002D050E09C
:1004D0000220F8BDA06A20F4885040F00200A0621B
:1004E000022000F0A7FC25490968B1FBF0F04000AC
:1004F00000E0401E00900028FBD12068816841F098
:100500000801816000F0F8FB054608E000F0F4FB0C
:10051000401B0A2803D920688068000715D420688A
:1005200080680007F2D42068816841F0040181608E
:1005300000F0E2FB054612E000F0DEFB401B0A285B
:100540000DD920688068400709D5A06A20F0020014
:1005500040F01000A06284F824600120F8BD2068FB
:1005600080684007E8D4A06A20F0020040F0010053
:10057000A06284F824603846F8BD0000180000200E
:10058000F8B50023009390F824201C46012A12D0CD
:10059000012280F824204A681F26072A0DD2056808
:1005A0006F6B521E02EB82029640B7430E68964074
:1005B00037436F6319E00220F8BD05680D2A0AD29F
:1005C0002F6BD21F02EB82029640B7430E68964013
:1005D00037432F6309E0EF6A0D3A02EB820296403F
:1005E000B7430E6896403743EF620A6807260568EE
:1005F0000A2A0AD3EF680A3A02EB42029640B7434E
:100600008E6896403743EF6008E02F6902EB4202A4
:100610009640B7438E68964037432F610A68102A88
:1006200001D0112A20D1124D0268AA4217D1956833
:100630002D0219D4956845F40005956009681029C4
:1006400012D10C490C4A0968B1FBF2F101EB8101AE
:10065000490000E0491E00910029FBD104E0816AB5
:1006600041F020018162012380F824401846F8BD42
:10067000002401401800002040420F0070477047DE
:10068000704700002DE9F0414FF0000604003546A8
:100690007DD0A06A002728B9E76284F8247020463C
:1006A00000F07EF82046FFF779FDA16AC90600D464
:1006B00020B1A06A40F01000A06268E0A16A21F4B5
:1006C000885141F00201A1626268E169237B0A431B
:1006D00046EA43010A43A1684FF48076B14208D04C
:1006E000012906D0002194F814C0BCF1010F02D0FA
:1006F0000AE03146F7E7F3B1A36A43F02003A362AF
:10070000E36A43F00103E3622368D3F804C02CF4E6
:10071000694C4CEA010CC3F804C021688B68DFF80F
:1007200074C003EA0C0313438B60A168B1420BD081
:10073000012909D00CE0DFF860C0A3690CEB43335A
:100740000B4343F40061DFE7218A0D05A5F5801511
:100750002168CB6A23F470032B43CB62216889683C
:100760000E4B1940914208D1E762A16A21F00201C3
:1007700041F00101A162BDE8F081A06A20F0020011
:1007800040F01000A062E06A40F00100E062012049
:10079000F1E70000FDF7E1FF00E0FFFFFE0E1FFFA5
:1007A00070B586B000240646009401940294039428
:1007B0000068194988422DD11849886940F40070B1
:1007C0008861886900F400700490886940F008002E
:1007D00088618869694600F0080004900120009053
:1007E000032001900E4800F08FF90F4D0D48C5E928
:1007F00000048015AC60C5E90340800068612020DA
:10080000C5E90604284600F007F908B1FFF74AFEDB
:1008100035626E6206B070BD0024014000100240D7
:10082000000C014008000240440100202DE9F0477F
:10083000894604463B4900683B4F0E1D904688425E
:1008400001D0B84207D1306810F4702F03D00125D1
:100850002846BDE8F08794F8240001280CD0012038
:1008600084F824002046FFF7FDFC05004FF000014E
:1008700004D084F82410EBE70220EAE7A06A40F6EF
:100880000162904340F48070A0622068B84218D1A1
:10089000326812F4702F14D0A06A40F48010A06265
:1008A0003068400505D5A06A20F4005040F480501F
:1008B000A062A06AC0040AD5E06A20F00600E062E7
:1008C00006E0A26A22F48012A2624068E9E7E162CF
:1008D00084F82410216A15488862216A1448C86285
:1008E000216A1448086321686FF0020008602068DC
:1008F000816841F480718160216843464A464C31E9
:10090000206A00F0B7F820688168C1F342410729E6
:10091000816803D041F48011816099E741F4A0011E
:10092000FAE700000024014000280140F10100081E
:10093000590200083F02000810B590F8211000226B
:10094000022905D00421816380F82020012010BDF8
:1009500001680B6823F00E030B6001680B6823F03D
:1009600001030B6090F84030012404FA03F1C36BDB
:10097000596080F8214080F82020104610BD00000A
:1009800010B590F821100024022903D004218163BE
:1009900001243DE001680A6822F00E020A60016845
:1009A0000A6822F001020A601A4A0168914201D1E4
:1009B000012121E0174A1432914201D110211BE09C
:1009C000144A2832914201D1891515E0114A3C326E
:1009D000914201D189140FE00E4A5032914202D166
:1009E0004FF4803108E00B4A6432914202D14FF457
:1009F000801101E04FF08071064A083A51600121F0
:100A000080F82110002180F82010416B01B1884747
:100A1000204610BD0800024030B528B302C8134A72
:100A200014230A44B2FBF3F29200C263104A8263B9
:100A3000022242770B6843F6F0729343D0E9002418
:100A40002243D0E902452C432243046922434469EE
:100A50002243846922431A430A6000214163012230
:100A600042770177084630BD012030BDF8FFFDBF59
:100A70000000024070B5044690F8200000250128CF
:100A80000CD0012084F8200094F821600020012E71
:100A900006D084F820000225284670BD022070BDD3
:100AA000022684F82160A0632068066826F001060B
:100AB00006602046FFF7E0FCE06A00282068016835
:100AC00002D041F00E0106E021F00401016020682F
:100AD000016841F00A0101602068016841F00101EC
:100AE0000160D9E770B5044600F006F90546601CC0
:100AF00002D004480078044400F0FEF8401BA042F5
:100B0000FAD370BD0C0000202DE9F84FDFF8A49156
:100B10000024A9F1040B23464FF00F0809F1040A41
:100B2000ABF1040EBEE00127A7403A40BA4272D1B1
:100B3000DFF884C14D68A5EB0C0665452BD00DDCB4
:100B4000032D34D005DC35B3012D19D0022D2FD162
:100B50001BE0112D16D0122D2AD119E0B6F5881FF1
:100B600019D006DCB6F5803F15D0B6F5801F1FD131
:100B700011E0B6F5001F0ED0B6F5041F18D10AE03B
:100B8000CB6815E0CB681B1D12E0CB6808330FE083
:100B9000CB680C330CE08B682BB1012B4FF00803B2
:100BA00003D0476104E0042302E0076100E0002372
:100BB000FF2A01D8064601E000F104064FEA840549
:100BC00001D9A5F12005376808FA05FC27EA0C07CA
:100BD00003FA05F547EA050737604D68ED0060D573
:100BE000364DAE6946F00106AE61AD6924F00306EC
:100BF00005F001050095324D7719BE68A5072D0F48
:100C000008FA05FC26EA0C06DFF8B8C0604503D1F7
:100C10004FF0000C17E044E0DFF8ACC0604502D1B3
:100C20004FF0010C0FE0DFF8A4C0604502D14FF097
:100C3000020C08E0DFF898C0604502D14FF0030CC9
:100C400001E04FF0040C0CFA05FC4CEA060CC7F866
:100C500008C04D68D9F80060ED024D4601D5164335
:100C600000E096432E604D68DAF80060AD0255460C
:100C700001D5164300E096432E604D68DBF8006016
:100C8000AD035D4601D5164300E096432E604D68E6
:100C9000DEF80060ED03754601D5164300E096438B
:100CA0002E60641C0A6832FA04F57FF43CAFBDE89C
:100CB000F88F0000080401400000111000100240ED
:100CC0000000014000080140000C014000100140FC
:100CD000001401408068084000D001207047C268BD
:100CE00021EA02030A4043EA0241016170470AB166
:100CF000016170470904FBE7014880687047000004
:100D00000C0000200248816802781144816070471D
:100D10000C000020074810B5016841F01001016087
:100D2000032000F075F80F2000F006F800F024F81A
:100D3000002010BD0020024070B50D4D04464FF458
:100D40007A712878B1FBF0F00A490968B1FBF0F03C
:100D500000F0A4FB48B9102C07D200222146501EF7
:100D600000F036F800206C6070BD012070BD0000FE
:100D70000C000020180000200C4808B5816941F0E3
:100D800001018161816901F001010091C16941F0B6
:100D90008051C161C069064900F0805000904868E8
:100DA00020F0E06040F00070486008BD0010024094
:100DB00000000140002809DB00F01F0201219140E2
:100DC0004009800000F1E020C0F8001170470000E9
:100DD000F0B40E4B1B68C3F30223C3F10704042CC9
:100DE00000D904241D1D072D01D2002300E0DB1EC5
:100DF000012606FA04F56D1E0D409D409E40761EAC
:100E0000164045EA0601F0BC01F0DEB90CED00E049
:100E1000064A00F0070110684FF6FF03184040EA49
:100E20000120034908431060704700000CED00E00A
:100E30000000FA0510B501460020234C012922D0FC
:100E4000022939D010291DD161682268D20119D533
:100E50001E48C1F38342C903805C0AD561681B4AFE
:100E6000C1F34041921E515C194AB2FBF1F1484373
:100E700001E0184948436168490203D44000032156
:100E8000B0FBF1F010BD226AC2F30121012903D1A8
:100E9000920701D5C80310BD022905D1626A9207E5
:100EA00002D549F6404010BD0329FCD121688903D1
:100EB000F9D54FF2244010BD00F02EF96168C1F35E
:100EC0008131491C4900DBE7001002403C25000845
:100ED00000127A0000093D002DE9F843044600782D
:100EE000344FC00752D0F8690025C00008D4F86913
:100EF00040F08050F861F869012500F080500090C2
:100F00002D480168C90511D40168804641F48071FB
:100F10000160FFF7F1FE064604E0FFF7EDFE801BDF
:100F2000642822D8D8F80000C005F6D5386A10F435
:100F3000407020D0A18801F4407181421BD0386AF2
:100F40001E49012220F440700A6000220A603862C3
:100F5000C00710D0FFF7D0FE064641F2883807E000
:100F6000FFF7CAFE811B414502D90320BDE8F88383
:100F7000386A8007F4D5386A616820F44070084305
:100F800038621DB1F86920F08050F8612078800740
:100F900005D57868A16820F440400843786020783F
:100FA000C00605D57868E16820F4800008437860C1
:100FB0000020DBE700100240007000404004424285
:100FC0002DE9F0470D46040067D0DFF81881D8F806
:100FD000000000F00700A8420CD2D8F8001021F061
:100FE00007012943C8F80010D8F8000000F00700F6
:100FF000A84252D120683C4E810712D5400703D544
:10100000706840F4E06070602078000703D5706875
:1010100040F4605070607068A16820F0F0000843F0
:1010200070602078C00727D06068012810D0316830
:10103000022810D0890700292FDA716821F00301F6
:1010400001437160FFF758FE074641F288390CE012
:1010500031688903EFE78901EDE7FFF74DFEC11B1A
:10106000494502D90320BDE8F0877068616800F047
:101070000C00B0EB810FF0D1D8F80010404601F021
:101080000701A9420BD9016821F00701294301603A
:10109000006800F00700A84201D00120E3E72078B3
:1010A000400705D57068E16820F4E060084370608F
:1010B0002078000706D57068216920F4605040EA66
:1010C000C100706000F038F87168084AC1F303117C
:1010D000515CC8400649086006480068FFF72CFECE
:1010E0000020C0E700200240001002404C2500080C
:1010F00018000020100000200448054900684968D5
:10110000044AC1F30221515CC84070471800002016
:10111000001002405C250008044805490068496841
:10112000044AC1F3C221515CC84070471800002036
:10113000001002405C2500080E4B59680E4801F073
:101140000C02042A11D0082A0FD10C48C1F38342A3
:10115000C903805C0AD55968084AC1F34041921E10
:10116000515C054A5043B0FBF1F0704704494843D5
:10117000704700000010024000127A002A25000883
:1011800000093D002DE9F84F04006FD02078BE4DD6
:10119000C00747D06868C0F38100012807D068689D
:1011A000C0F38100022809D16868C00306D5286809
:1011B000800337D560680028E7D033E06068B0F579
:1011C000803F0BD010B1B0F5A02F11D0286820F4CB
:1011D00080302860286820F4802002E0286840F4ED
:1011E00080302860606888B1FFF786FD064609E018
:1011F000286840F480202860F0E7FFF77DFD801B21
:10120000642873D828688003F7D50BE0FFF774FDD6
:10121000064604E0FFF770FD801B6428F1D82868BB
:101220008003F7D42078DFF8648280074FF0010A4A
:101230004FF0000939D5686810F00C0F07D06868C6
:10124000C0F38100022809D16868C00306D4286869
:10125000800714D52069012808D110E02069B0B1B9
:10126000C8F800A0FFF748FD064605E007E1FFF7D4
:1012700043FD801B0228C4D828688007F7D528685A
:10128000616920F0F80040EAC10028600DE0C8F86C
:101290000090FFF731FD064604E0FFF72DFD801BAF
:1012A000022823D828688007F7D4207800072CD597
:1012B0007748A169D9B1C0F800A0FFF71DFD064627
:1012C00004E0FFF719FD801B02280FD8686A800729
:1012D000F7D570484FF4FA510068B0FBF1F0009078
:1012E00000BF0098411E0091FAD20EE07CE0C0F8E9
:1012F0000090FFF701FD064604E0FFF7FDFC801BB0
:10130000022871D8686A8007F7D4207840075BD537
:10131000E8690027C00008D4E86940F08050E8611F
:10132000E869012700F0805000905B480168C9051A
:1013300011D40168834641F480710160FFF7DCFC41
:10134000064604E0FFF7D8FC801B64284CD8DBF885
:101350000000C005F6D5E06801280AD008B10528CC
:1013600013D0286A20F001002862286A20F00400C7
:1013700002E0286A40F001002862E06841F2883B00
:1013800088B1FFF7B9FC064609E0286A40F004007E
:101390002862EEE7FFF7B0FC811B59455BD8286A4D
:1013A0008007F7D50BE0FFF7A7FC064604E0FFF740
:1013B000A3FC811B59454ED8286A8007F7D41FB17A
:1013C000E86920F08050E861E069A8B36968C1F37A
:1013D0008101022946D00228484606D0C8F860009C
:1013E000FFF78AFC044639E035E04746C8F860005C
:1013F000FFF782FC064604E0FFF77EFC801B022814
:1014000029D828688001F7D4206AB0F5803F05D13B
:101410006868A16820F4003008436860D4E90801D6
:101420000843696821F4741108436860C7F860A034
:10143000FFF762FC044605E023E0FFF75DFC001BBC
:10144000022808D828688001F7D51AE0FFF754FC75
:10145000001B022802D90320BDE8F88F286880010C
:10146000F4D40EE00128F7D06868226A00F48031D5
:10147000914204D1616A00F47010884201D00120C9
:10148000EAE70020E8E700000010024000004242C6
:1014900080044242180000200070004010B5401E39
:1014A000B0F1807F01D3012010BD4FF0E0246061D6
:1014B0000F21601700F088FE0020A0610720206146
:1014C000002010BD70B590F83C20012A26D00125DF
:1014D00080F83C50022280F83D20026853689468EE
:1014E00023F070060B68334353600D4B02689A4239
:1014F00008D0B2F1804F05D00A4B9A4202D00A4B75
:101500009A4204D1496824F080031943916080F81D
:101510003D50002180F83C10084670BD022070BD8F
:10152000002C0140000400400008004010B50400F9
:1015300003D094F83D0010B107E0012010BD002059
:1015400084F83C00204600F01FF8022084F83D009B
:10155000211D206800F04EFC012084F8460084F82C
:101560003E0084F83F0084F8400084F8410084F88D
:10157000420084F8430084F8440084F8450084F86D
:101580003D00002010BD000008B5006806498842F3
:1015900008D10648816941F400618161806900F4E5
:1015A0000060009008BD0000002C014000100240C7
:1015B00090F83D10012901D001207047022180F8E8
:1015C0003D1000680B49884208D0B0F1804F05D02B
:1015D0000949884202D00949884204D1816801F052
:1015E0000701062903D0016841F0010101600020D4
:1015F00070470000002C014000040040000800403B
:1016000001680A6A41F211131A4207D10A6A9B1053
:101610001A4203D10A6822F001020A60012180F80F
:101620003D100020704770B5044690F83C0000253E
:10163000012817D0012684F83C60022084F83D0080
:101640002068826822F0770222F47F428260086874
:10165000502838D00DDC20284FD005DC90B310285E
:1016600011D14AE0022070BD302846D040280AD16E
:101670003BE060282FD070280DD0B0F5805F03D0FC
:10168000B0F5005F12D0012584F83D60002084F899
:101690003C00284670BDCB68D1E90121206800F0EC
:1016A000E5FB2068816841F0770109E0CB68D1E96A
:1016B0000121206800F0DAFB2068816841F4804154
:1016C0008160E1E719E0CA684968206800F0E0FB42
:1016D0005021206806E0CA684968206800F0E9FBEC
:1016E0006021206800F0CCFBCEE7CA68496820681A
:1016F00000F0CEFB40212068F4E722680146104646
:10170000F0E718B5034690F84200202801D00220E7
:1017100018BD51B14AB10120186300205863184622
:1017200000F0E6FC010002D005E0012018BD186BB6
:10173000012802D00121084618BD186802684068D7
:10174000009018680C3050E8002F42F0100240E87A
:101750000024002CF5D1EEE7024A01201070024867
:101760000180704700000020020000207047000048
:10177000F8B5016804460868CA684B6910F00F0F95
:101780004FF0000559D003F0010602F4907737437B
:1017900065D0C10705D0D10503D5616C41F00101C9
:1017A0006164410705D5D90703D0616C41F002019E
:1017B0006164810705D5D90703D0616C41F004014C
:1017C0006164010707D502F02001314303D0616C49
:1017D00041F008016164616C00293AD0800604D5AB
:1017E000900602D5204600F0C6FB20684069616C77
:1017F000C0F38010090700D460B3204600F094FBCA
:1018000020684069400621D52068143050E8001F48
:1018100021F0400140E80012002AF5D1E06BA8B1A8
:101820006D494163E06BFFF7ABF8002811D0E06B26
:10183000416B01B0BDE8F040084783060FD5930621
:101840000DD52046BDE8F84000F095BB2046FFF7D7
:101850008DFFF8BD2046FFF789FF6564F8BD266B54
:101860002023012E7CD1C6067AD5D60678D5086805
:101870004868009048694FF00206400640D5E16B89
:10188000086840680004000CE8D0A28D8242E5D9C7
:10189000E085886920282DD020680C3050E8001F92
:1018A00021F4807140E80012002AF5D1206814303C
:1018B00050E8001F21F0010140E80012002AF5D194
:1018C0002068143050E8001F21F0400140E8001269
:1018D000002AF5D184F84230256320680C3050E8A6
:1018E000001F21F0100140E80012002AF5D1E06B42
:1018F000FFF722F86663A08DE18D401A81B22AE0DD
:10190000A08DE18D401A81B2E08D0028A6D000297B
:10191000A4D020680C3050E8002F22F4907240E8E8
:101920000027002FF5D12068143050E8002F22F056
:10193000010240E80027002FF5D184F842302563EA
:1019400020680C3050E8002F22F0100240E80023FD
:10195000002BF5D166632046FFF7FEFEF8BDFFE7DA
:1019600005062BD5150629D594F841002128F5D177
:10197000A068B0F5805F01D12069B0B1206A411C38
:101980002162216800784860E08C401E0004000C51
:10199000E084E3D12068C16821F08001C160206843
:1019A000C16841F04001C160D8E7206A0088C0F3F7
:1019B00008004860206A801C2062E5E74006CDD51B
:1019C0005006CBD5CA68204622F04002CA6084F88F
:1019D000413000F0C6F8C1E7191F000870B50400D7
:1019E00004D094F84100002510B106E0012070BD3C
:1019F00084F84050204600F023F8242084F8410069
:101A00002068C16821F40051C160204600F014FB39
:101A10002068016921F4904101612068416921F049
:101A20002A0141612068C16841F40051C1606564C8
:101A3000202084F8410084F842006563002070BDD6
:101A400030B585B00024009401940294039400689A
:101A5000184988422CD11848816941F4804181613C
:101A6000816901F480410491816941F0040181613F
:101A70008069124D00F0040004904FF40070009053
:101A8000022001900320039069462846FFF73CF8A6
:101A90002815CDE90004694628460294FFF734F87A
:101AA000002211462520FFF793F92520FFF782F940
:101AB00005B030BD00380140001002400008014070
:101AC00070472DE9F843044690F841001F4615463B
:101AD0000E46202802D00220BDE8F8838EB185B1E1
:101AE00000206064212084F84100FFF705F9A584F7
:101AF0008146E584A0684FF02008B0F5805F02D0F1
:101B000003E00120E8E7206910B1354600260EE029
:101B100000250CE08021204600F005FBA0B9BDB1F6
:101B200015F8010B21684860E08C401EE084E08CD1
:101B30004B464FF0000200970028EBD14FF04001D8
:101B4000204600F0F0FA40B184F841800320C3E75A
:101B500036F8020BC0F30800E4E784F84180002067
:101B6000BAE77047FEE700003EB500241148009434
:101B7000019402940E498460016001250573047587
:101B800005614FF460214460C161FEF77BFD08B13F
:101B9000FEF788FC0820CDE9000569460294054857
:101BA000FEF7EEFC002801D0FEF77CFC3EBD0000F5
:101BB0000024014014010020054808B5416941F0A6
:101BC00001014161406900F00100009008BD000082
:101BD000001002402DE9F04F85B0002437480094F2
:101BE000019402940394816941F01001816181693B
:101BF00001F010010491816941F020018161816946
:101C000001F020010491816941F00801816181693D
:101C100001F008010491816941F00401816180694A
:101C2000DFF89C9000F004004FF40056049000226E
:101C300031464846FFF75BF80122DFF888A017031A
:101C400039465046FFF753F8012239465046FFF710
:101C50004EF8002231465046FFF749F8DFF868B0E9
:101C6000012211465846FFF742F84FF003080125BC
:101C7000CDF80C800096CDE9015469464846FEF740
:101C800043FFCDE900750227CDE90247694650467A
:101C9000FEF73AFF03970096CDE901546946504696
:101CA000FEF732FFCDF80C800095CDE9015469466E
:101CB0005846FEF729FF05B0BDE8F08F001002403E
:101CC00000100140000C01400008014010B586B032
:101CD0000024174800940194029403940494134937
:101CE000059401604721C0E901144FF6FF71C0E976
:101CF000031444618461FFF719FC08B1FEF7D2FBBD
:101D00004FF48050009069460948FFF78CFC08B1F9
:101D1000FEF7C8FB049404A905480594FFF7D2FB1D
:101D2000002801D0FEF7BEFB06B010BD002C01401C
:101D3000CC0000200C4810B50A4901604FF4E13195
:101D40004160002181600C22C160C0E90412816100
:101D5000C161FFF743FE002803D0BDE81040FEF745
:101D6000A1BB10BD0038014084000020FEE7FEE763
:101D700070477047FEF7C6BF30B593B0282168465C
:101D8000FEF7D9F914210AA8FEF7D5F9002401219C
:101D90000F9410940804CDE9001011941294029449
:101DA00002250491CDE907504FF4E01009906846F0
:101DB000FFF7E8F908B172B6FEE70F20CDE90A0592
:101DC0004FF48060CDE90C4002210AA80E94FFF781
:101DD000F7F808B172B6FEE74FF4004011900F9586
:101DE0000FA8FFF779F8002801D072B6FEE713B00C
:101DF00030BD7047F0B50268194C1A4D1A4E4FF0BD
:101E00008047A04205D0B84203D0A84201D0B042DA
:101E100003D122F070034A681A43A04205D0B842A9
:101E200003D0A84201D0B04203D122F44073CA6863
:101E30001A434B6922F080021A4302608A68C26228
:101E40000A688262A04201D10969016301214161EE
:101E50000169C90703D0016921F001010161F0BDE9
:101E6000002C0140000400400008004010B58468C8
:101E700042EA032224F47F440A432243826010BDD5
:101E8000826822F070020A4342F0070181607047C5
:101E900010B5046A036A23F001030362836923F027
:101EA000F00343EA021324F00A020A438361026248
:101EB00010BD10B5036A046A24F01004046284693A
:101EC00023F0A00324F4704444EA023243EA0111EF
:101ED0008261016210BD000070B50E4C4FF40056D7
:101EE00031462046FEF7F6FEA51401280BD001224C
:101EF00031462046FEF7FBFE002229462046BDE87B
:101F00007040FEF7F4BE002231462046FEF7EFFE99
:101F10000122F2E7000C014010B5406A0021C185A2
:101F2000C184FFF723FC10BD01680C3151E8002F7C
:101F300022F4907241E80023002BF5D1016814319E
:101F400051E8002F22F0010241E80023002BF5D1D7
:101F5000016B012909D101680C3151E8002F22F0F1
:101F6000100241E80023002BF5D1202180F8421017
:101F700000210163704708B590F84210222901D072
:101F8000022008BD81684FF48053994201D1026953
:101F900022B1826A99421BD049B10AE00268816A83
:101FA0005268C2F308020A80816A891C08E001694C
:101FB00071B10168496801F07F011170816A491CA3
:101FC0008162C18D491E0904090CC18503D01BE043
:101FD00001684968F1E70168CA6822F02002CA6016
:101FE0000168CA6822F48072CA6001684A6922F0F6
:101FF00001024A61202180F8421000214163026BF6
:10200000012A03D0FFF75CFD002008BD01630168D1
:102010000C3151E8002F22F0100241E80023002B80
:10202000F5D101680A68D20602D50A6849680091AC
:10203000818DFFF791FBE7E770B504460068016901
:10204000E26821F4405111430161A1682069014314
:10205000606901432068C26841F20C639A430A43F5
:10206000C26020684169A26921F440711143416155
:102070001E492068884202D1FFF74EF801E0FFF7C1
:102080003BF800EBC00101EB0011606864228000A6
:10209000B1FBF0F3B3FBF2F36FF018067343B1FB3F
:1020A000F0F5B1FBF0F605EB8305322303EB0515E4
:1020B000B5FBF2F5B6FBF2F605F0F00505EB0615FB
:1020C000B1FBF0F6B1FBF0F0B0FBF2F06FF01801ED
:1020D000484306EB800003EB0010B0FBF2F02168F0
:1020E00000F00F002844886070BD000000380140F7
:1020F00081628285C28500214164222180F84210DC
:10210000016921B10168CA6842F48072CA6001683D
:102110004A6942F001024A610068C16841F0200149
:10212000C160002070472DE9F8431F4690460D46D8
:102130000446089E23E0701C21D0FEF7DDFDC01B85
:10214000B0421AD8CEB12068C168490717D5802D92
:1021500015D0402D13D00168C94309070FD4016879
:102160000025406800902046FFF7DEFE08206064EE
:1021700084F840500120BDE8F8830320FBE7206885
:10218000006835EA000004D000204045D3D000208C
:10219000F1E70120F9E700000148FFF7E9BA000084
:1021A00084000020FEE700000FB4054B10B503A922
:1021B000044A029800F028F810BC5DF814FB0000F7
:1021C0008D2300081C0000200907090E002804DBED
:1021D00000F1E02080F80014704700F00F0000F1DB
:1021E000E02080F8141D704702E008C8121F08C1E3
:1021F000002AFAD170477047002001E001C1121F88
:10220000002AFBD1704700002DE9FF4F89B09B46A3
:102210000446002506E025280BD05A460B99904726
:10222000641C6D1C20780028F5D10DB02846BDE84F
:10223000F08F0027B8460122474900E0074314F811
:10224000013F203B02FA03F00842F7D120782E2804
:1022500019D114F8010F47F004072A280ED06FF0A7
:102260002F022078A0F1300109290CD808EB880151
:1022700002EB410100EB0108641CF2E70A98641CC0
:1022800050F8048B0A9020780028CED0642808D01B
:10229000692806D075281ED05A460B9990476D1CA8
:1022A00058E00A994FF00A0901C90A91002802DA98
:1022B00040422D2102E0390504D52B218DF8201054
:1022C000012103E0F90704D02021F7E78A4608AE90
:1022D0000DE00021FAE70A994FF00A0901C90A91B5
:1022E000F7E74946FDF732FF303106F8011D0028B7
:1022F000F7D1ADEB060000F12009780701D44FF0CB
:102300000108C84502DDA8EB090000E00020804676
:10231000002706E008A85A46C05D0B9990476D1C3F
:102320007F1C5745F6DB04E030205A460B99904756
:102330006D1CB8F10001A8F10108F5DC05E016F804
:10234000010B5A460B9990476D1CB9F10001A9F198
:102350000109F4DC641C65E70928010070B54FF63B
:10236000FA75094E281A84B2306844623046FFF785
:102370001FF9306801E0416A8CB2AC42FBD3BDE882
:1023800070400148FFF73CB9CC00002013B54FF670
:10239000FF73012269460248FFF793FB00981CBDBA
:1023A000840000201CB501208DF800008DF8040089
:1023B0000624FEF7AFFCFFF7DFFCFFF70BFCFFF78F
:1023C000B9FCFFF783FCFFF7F7FBFFF7CDFB3848BD
:1023D000FEF76AF8012237493548FEF727FA01254A
:1023E0002E464FF40058DFF8D0904FF4FA770FE004
:1023F00041464846FEF773FC294630A0FFF7D4FE5D
:102400003846FEF76FFB28466D1CEDB20A2806D849
:10241000FDF7B0FF0028EBD10EB130A000E038A0EE
:10242000FFF7C2FE234D4FF47A762D1F32463C490A
:102430003C48FFF766F92046641CE4B2052815D92C
:1024400001A96846FDF7D7FF1A489DF80010801CC7
:10245000002401709DF804104170811E64220988D7
:10246000514340F6FF72B1FBF2F181702878D8B188
:102470002B480078322815D16888012812D13046BF
:10248000FEF730FBFFF728FD0A4933460322891C7B
:102490002448FFF716FB012241464846FEF727FC79
:1024A000FFF71AFD002028703846FEF71BFBBDE73A
:1024B0001401002004000020001001404448543161
:1024C0003120496E6974204661696C656420256419
:1024D0002074696D65730D0A000000004448543192
:1024E0003120496E69742073756363657373206569
:1024F00076656E7475616C6C79210D0A00000000C0
:10250000444854313120496E6974206661696C65B4
:1025100064206576656E7475616C6C79210D0A00B6
:1025200020000020840000200102020304050607A9
:1025300008090A0B0C0D0E0F10100102020304050E
:10254000060708090A0B0C0D0E0F10100000000002
:102550000000000001020304060708090000000053
:102560000102030484250008000000202000000070
:10257000E8210008A42500082000002068050000CC
:10258000F821000800000000010000000000000029
:1025900001000000100000000000000000127A009E
:0425A0000000000037
:04000005080000ED02
:00000001FF
