:020000040800F2
:10000000B8060020050100082F25000885220008F9
:100010002D250008E1060008BD2D000800000000A5
:10002000000000000000000000000000552800084B
:10003000E306000800000000312500087D280008C4
:100040001F0100081F0100081F0100081F01000810
:100050001F0100081F0100081F0100081F01000800
:100060001F0100081F0100081F0100081F010008F0
:100070001F0100081F0100081F0100081F010008E0
:100080001F0100081F0100081F0100081F010008D0
:100090001F0100081F0100081F0100081F010008C0
:1000A0001F0100081F0100081F0100081F010008B0
:1000B000052900081F0100081F0100081F01000892
:1000C0001F0100081F0100081F0100081F01000890
:1000D0001F010008A52D0008B12D00081F01000810
:1000E0001F0100081F0100081F010008DFF810D0E1
:1000F00000F066FA00480047D53C0008AFF30080E6
:10010000B80600200648804706480047FEE7FEE79D
:10011000FEE7FEE7FEE7FEE7FEE7FEE7FEE7FEE7B7
:1001200001290008ED000008202A04DB203A21FA0A
:1001300002F00021704721FA02F3D040C2F1200200
:10014000914008431946704740EA01039B0703D0DA
:1001500009E008C9121F08C0042AFAD203E011F806
:10016000013B00F8013B521EF9D27047D2B201E0C8
:1001700000F8012B491EFBD270470022F6E710B5AC
:1001800013460A4604461946FFF7F0FF204610BD05
:1001900030B505462A460B4612F8010B13F8014B01
:1001A00008B1A042F8D01CB1002802D06D1CF1E7C4
:1001B000284630BD421C10F8011B0029FBD1801AD3
:1001C000704730B50B46014600202022012409E08B
:1001D00021FA02F59D4205D303FA02F5491B04FA00
:1001E00002F52844151EA2F10102F1DC30BD2DE913
:1001F000F05F0546002092469B46884606468146AB
:1002000040241BE02846414647462246FFF78CFF24
:1002100053465A46C01A914110D3114618462246F9
:1002200000F0E0F92D1A67EB01084F462246012045
:10023000002100F0D7F917EB00094E41201EA4F170
:100240000104DFDC484631462A464346BDE8F09FBC
:100250002DE9FE4F804681EA0300C00F0C46009056
:1002600021F0004123F00045B8EB0200A94105D27E
:100270004046214690461C460B46024623F000406D
:10028000104347D0270DC7F30A00C3F30A51029069
:10029000401A019040286BDAC3F3130040F4801B2E
:1002A0000098924620B10023D2EB030A63EB0B0BBC
:1002B00001985946C0F14002504600F093F90646B5
:1002C0000D4650465946019A00F09BF910EB080084
:1002D0006141002487EA115284EAE7731A4340D04F
:1002E000009A62B3019A012A4FEA075215DC001BFB
:1002F00061EB02014FF0004202EA0752CDE90042F1
:10030000001C41F5801132462B4600F09BF903B0EA
:10031000BDE8F08F40462146F9E7001B61EB020182
:10032000001C41F5801300185B412018A2F500174E
:1003300047EB030140EAD570B6196D4111E06D0835
:100340004FEA360645EAC0754FEA0752001B61EBDB
:100350000201001C41F5801149084FEA30000019E4
:10036000514132462B4603B0BDE8F04F00F05BB977
:100370000098012240000023D0EB020263EBE073FF
:10038000009821464FEAE074B8EB000061EB0401ED
:10039000E9E783F000435BE781F0004158E72DE98E
:1003A000FE4F81EA030404F0004421F00041009470
:1003B0004FF0000B23F0004350EA01045ED052EAF4
:1003C00003045BD0C3F30A54C1F30A552C44A4F2CE
:1003D000F3340194A0FB0254C1F3130141F48011E2
:1003E000C3F3130343F4801301FB024400FB034EE9
:1003F000840A970A44EA815447EA8357A4FB0768B2
:1004000002958D0A05FB07854FEA932C04FB0C54DB
:100410002705029D4FEA065847EA1637B5EB08054F
:100420006EEB070C870E920E47EA811742EA8312A1
:10043000A7FB0201B6EB0B0164EB00042B0D43EAB2
:100440000C335E1844EB1C50DA465146E7FB0201C0
:10045000C5F313044FEA0B3343EA14534FEA043253
:10046000019C43EA0603A4F10C040294009CCDE92C
:1004700000B400F0E7F803B0BDE8F08F00200146BB
:10048000F9E72DE9F04D81EA030404F0004B21F077
:10049000004514464FF0000A23F0004150EA0502DF
:1004A00020D054EA01021DD0C5F30A570246C5F315
:1004B0001303C1F31300C1F30A5640F4801543F44B
:1004C0008013A7EB0608101BD64608F2FD3873EB25
:1004D000050002D308F1010801E092185B41B8F170
:1004E000000F03DA00200146BDE8F08D00204FF434
:1004F0008011064684460EE0171B73EB050705D3F3
:10050000121B63EB050306434CEA010C49084FEA52
:10051000300092185B4150EA0107EDD152EA030026
:1005200012D082EA040083EA0501084305D0101BBB
:10053000AB4106D20122002306E000224FF0004327
:1005400002E06FF0010253101AEB06004CEB085169
:1005500010EB0A0041EB0B01BDE8F04D00F063B871
:10056000C1F30A52C1F3130140F2FF3341F4801189
:100570009A4202DA00200146704740F233439A4221
:10058000A2F2334202DC5242FFF7CEBD00F02AB89D
:1005900030B5041E71F1000404DB4FF0004440420A
:1005A00064EB0101141E73F1000405DB1C464FF0DF
:1005B0000043524263EB0403994208BF904230BDAE
:1005C000064C074D06E0E06840F0010394E80700A0
:1005D00098471034AC42F6D3FFF78CFD3842000840
:1005E00058420008202A04DB203A00FA02F10020D9
:1005F00070479140C2F1200320FA03F31943904061
:100600007047202A06DBCB17203A41FA02F043EA72
:10061000E07306E041FA02F3D040C2F120029140BB
:1006200008431946704710B5141E73F1000408DA28
:10063000401C41F1000192185B411A4301D120F0A6
:10064000010010BD2DE9F04D92469B4611B1B1FA63
:1006500081F202E0B0FA80F220329046FFF7C2FF4A
:1006600004460F4640EA0A0041EA0B0153465A4647
:10067000084313D0114653EA010019D0C8F14002D3
:100680005046FFF751FD05460E4650465946424634
:10069000FFF7A8FF084305D0012004E020463946B3
:1006A000BDE8F08D0020054346EAE0762C43374351
:1006B0000A986305E40AA0EB08000022FD0A44EA58
:1006C00047540A3002D500200146E9E70105101918
:1006D0006941DDE9084500196941BDE8F04DA2E72F
:1006E000FEE77047F8B506460F244FF4FA6515E0AB
:1006F0000D4B64220D490E48009501F06CFA50B97B
:1007000031460A48FFF744FD28B164210748FFF746
:1007100034FD0120F8BD0A2000F07EF82046641E5A
:10072000E4B2E5D2F8BD000010000020E401002092
:100730009C01002072B6FEE710B590F8211000224F
:10074000022905D00421816380F82020012010BDFA
:1007500001680B6823F00E030B6001680B6823F03F
:1007600001030B6090F84030C46B012101FA03F3E0
:10077000636080F8211080F82020104610BD000032
:1007800010B590F821100024022903D004218163C0
:1007900001243DE001680A6822F00E020A60016847
:1007A0000A6822F001020A601A4A0168914201D1E6
:1007B000012121E0174A1432914201D110211BE09E
:1007C000144A2832914201D1891515E0114A3C3270
:1007D000914201D189140FE00E4A5032914202D168
:1007E0004FF4803108E00B4A6432914202D14FF459
:1007F000801101E04FF08071064A083A51600121F2
:1008000080F82110002180F82010416B01B1884749
:10081000204610BD0800024070B5044600F010F9F3
:100820000546601C02D004480078044400F008F932
:10083000401BA042FAD370BD180000202DE9F84FEC
:10084000DFF8B8910024A9F1040B23460F2709F122
:10085000040AABF1040EC9E00125A5402A40AA42D2
:100860007DD1674ED1F804C0ACEB0608B44532D058
:1008700014DCBCF1030F3AD009DCBCF1000F2AD024
:10088000BCF1010F1CD0BCF1020F31D11DE0BCF155
:10089000110F17D0BCF1120F2AD119E0B8F5881F3B
:1008A00019D006DCB8F5803F15D0B8F5801F1FD1F0
:1008B00011E0B8F5001F0ED0B8F5041F18D10AE0FA
:1008C000CB6815E0CB681B1D12E0CB6808330FE046
:1008D000CB680C330CE08B682BB1012B4FF0080375
:1008E00003D0456104E0042302E0056100E0002339
:1008F000FF2A01D8064601E000F104064FEA84050C
:1009000001D9A5F12005D6F8008007FA05FC28EAF0
:100910000C0803FA05F548EA0508C6F800804D689A
:10092000ED0062D5374DAE6946F00106AE61AD69A6
:1009300024F0030605F001050095334D06EB050C88
:10094000DCF80850A607360F07FA06F825EA08056E
:10095000DFF8B880404503D14FF0000817E044E0CD
:10096000DFF8AC80404502D14FF001080FE0DFF81E
:10097000A480404502D14FF0020808E0DFF89880DB
:10098000404502D14FF0030801E04FF0040808FA97
:1009900006F848EA0508CCF808804D68D9F80060E8
:1009A000ED024D4601D5164300E096432E604D689A
:1009B000DAF80060AD02554601D5164300E09643D3
:1009C0002E604D68DBF80060AD035D4601D516432F
:1009D00000E096432E604D68DEF80060ED0375463A
:1009E00001D5164300E096432E60641C0D682A462C
:1009F000E5407FF431AFBDE8F88F00000804014006
:100A000000001110001002400000014000080140E9
:100A1000000C0140001001400014014080680840B3
:100A200000D001207047C26821EA02030A4043EA6D
:100A30000241016170470AB1016170470904FBE797
:100A40000148806870470000180000200248816853
:100A5000027811448160704718000020074810B5E3
:100A6000016841F010010160032000F075F80F20CB
:100A700000F006F800F024F8002010BD002002402D
:100A800070B50D4D04464FF47A712878B1FBF0F043
:100A90000A490968B1FBF0F000F000FF48B9102CDA
:100AA00007D200222146501E00F036F800206C606C
:100AB00070BD012070BD000018000020240000203F
:100AC0000C4808B5816941F001018161816901F03B
:100AD00001010091C16941F08051C161C06900F01C
:100AE000805000900448416821F0E06141F00071BD
:100AF000416008BD0010024000000140002809DBF1
:100B000000F01F02012191404009800000F1E02027
:100B1000C0F8001170470000F0B40E4B1B680C4683
:100B2000C3F30223C3F10705042D00D90425191DC1
:100B3000072901D2002300E0DB1E012606FA05F199
:100B4000491E214099409E40761E16403143F0BC1C
:100B500002F028BA0CED00E0064900F00702086830
:100B60004FF6FF03184040EA0220034A1043086092
:100B7000704700000CED00E00000FA05014901207B
:100B80000862704700000E4210B501460020234C59
:100B9000012922D0022939D010291DD1616822688B
:100BA000D20119D51E48C1F38342C903805C0AD51E
:100BB00061681B4AC1F34041921E515C194AB2FB65
:100BC000F1F1484301E0184948436168490203D400
:100BD00040000321B0FBF1F010BD226AC2F30121F5
:100BE000012903D1920701D5C80310BD022905D1FF
:100BF000626A920702D549F6404010BD0329FCD134
:100C000021688903F9D54FF2244010BD00F02AF97C
:100C10006168C1F38131491C4900DBE700100240E3
:100C20001042000800127A0000093D002DE9F84347
:100C300005460078354CC00754D0E0690026C00056
:100C400008D4E06940F08050E061E069012600F0DE
:100C5000805000902E480168C90512D40168804672
:100C600041F480710160FFF7EBFE074605E000BF2D
:100C7000FFF7E6FEC01B642823D8D8F80000C005A3
:100C8000F6D5206A10F4407021D0A98801F4407193
:100C900081421CD0206A1F49012220F440700A6062
:100CA00000220A602062C00711D0FFF7C9FE074684
:100CB00041F2883808E000BFFFF7C2FEC11B414582
:100CC00002D90320BDE8F883206A8007F4D5206AA2
:100CD000696820F44070084320621EB1E06920F08A
:100CE0008050E0612878800705D56068A96820F405
:100CF0004040084360602878C00605D56068E96810
:100D000020F48000084360600020DBE70010024010
:100D100000700040400442422DE9F0470F460500B4
:100D200061D0434E306800F00700B84209D2306805
:100D300020F0070038433060306800F00700B84208
:100D400051D128683B4C810712D5400703D5606814
:100D500040F4E06060602878000703D5606840F4E4
:100D6000605060606068A96820F0F000084360602F
:100D70002878C00728D06868012810D02168022888
:100D800010D0890700292EDA616821F003010143A0
:100D90006160FFF755FE804641F288390DE0216819
:100DA0008903EFE78901EDE7FFF74AFEA0EB0801B1
:100DB000494502D90320BDE8F0876068696800F002
:100DC0000C00B0EB810FEFD1306800F00700B842A3
:100DD0000BD9306820F0070038433060306800F0ED
:100DE0000700B84201D00120E5E72878400705D583
:100DF0006068E96820F4E0600843606028780007D4
:100E000006D56068296920F4605040EAC10060603E
:100E100000F038F86168084AC1F30311515CC8401A
:100E20000649086006480068FFF72AFE0020C2E76E
:100E30000020024000100240204200082400002050
:100E40001C0000200448054900684968044AC1F3B1
:100E50000221515CC840704724000020001002406D
:100E6000304200080448054900684968044AC1F353
:100E7000C221515CC840704724000020001002408D
:100E8000304200080E4A51680E4801F00C03042B52
:100E900011D0082B0FD10C48C1F38343C903C05CA8
:100EA0000AD55168084AC1F34041921E515C054A77
:100EB0005043B0FBF1F070470449484370470000CD
:100EC0000010024000127A00FE41000800093D00B7
:100ED0002DE9F84F040070D02078C04DC00749D0EC
:100EE0006868C0F38100012807D06868C0F38100FA
:100EF000022809D16868C00306D52868800339D55F
:100F000060680028E7D035E06068B0F5803F0BD01E
:100F100010B1B0F5A02F11D0286820F480302860DF
:100F2000286820F4802002E0286840F4803028609F
:100F3000606890B1FFF784FD06460AE0286840F437
:100F400080202860F0E700BFFFF77AFD801B64284F
:100F500073D828688003F7D50CE0FFF771FD0646CB
:100F600005E000BFFFF76CFD801B6428F0D82868FF
:100F70008003F7D420789A4E80074FF001094FF094
:100F8000000839D5686810F00C0F07D06868C0F306
:100F90008100022809D16868C00306D42868800748
:100FA00014D52069012808D110E02069B0B1C6F835
:100FB0000090FFF745FD074605E00AE1FFF740FD19
:100FC000C01B0228C4D828688007F7D52868616943
:100FD00020F0F80040EAC10028600DE0C6F800806B
:100FE000FFF72EFD074604E0FFF72AFDC01B02288D
:100FF00023D828688007F7D4207800072CD57948B3
:10100000A169D9B1C0F80090FFF71AFD074604E0C6
:10101000FFF716FDC01B02280FD8686A8007F7D5B6
:1010200071484FF4FA510068B0FBF1F0009000BF36
:101030000098411E0091FAD20EE080E0C0F80080D6
:10104000FFF7FEFC074604E0FFF7FAFCC01B02288E
:1010500075D8686A8007F7D42078400760D5E869BA
:101060000027C00008D4E86940F08050E861E869D2
:10107000012700F0805000905C480168C90513D436
:101080000168834641F480710160FFF7D9FC824614
:1010900006E000BFFFF7D4FCA0EB0A0064284ED89E
:1010A000DBF80000C005F5D5E06801280AD008B1DA
:1010B000052813D0286A20F001002862286A20F051
:1010C000040002E0286A40F001002862E06841F272
:1010D000883B98B1FFF7B4FC82460BE0286A40F0E9
:1010E00004002862EEE700BFFFF7AAFCA0EB0A01AC
:1010F00059455AD8286A8007F6D50CE0FFF7A0FCBE
:10110000824605E0FFF79CFCA0EB0A0159454CD84C
:10111000286A8007F6D41FB1E86920F08050E861A2
:10112000E06988B36968C1F38101022944D00228CB
:10113000C6F8608004D0FFF783FC044638E034E052
:10114000FFF77EFC074604E0FFF77AFCC01B02288D
:101150002BD828688001F7D4206AB0F5803F05D1EC
:101160006868A16820F4003008436860D4E9080189
:101170000843696821F4741108436860C6F86090F8
:10118000FFF75EFC044606E025E000BFFFF758FCD1
:10119000001B022809D828688001F7D51BE000BF92
:1011A000FFF74EFC001B022802D90320BDE8F88F90
:1011B00028688001F4D40EE00128F7D06868226A1C
:1011C00000F48031914204D1616A00F470108842C9
:1011D00001D00120EAE70020E8E70000001002400B
:1011E000000042428004424224000020007000407F
:1011F000F8B505004FF0000016460C46009006D0EA
:101200002CB100226946284600F019F808B10120E7
:10121000F8BD287B2070E87BE070697B6170A97B5A
:10122000A17056B101F08EF9E070607801F08AF992
:101230006070A07801F086F9A0700020F8BD2DE95B
:10124000F04791460C465FEA00084AD084B3D8F8CC
:1012500000004068400744D4404601F011FA4FF4C2
:1012600061620546B0FBF2F1B0FBF2F302FB1350F2
:101270003C23B0FBF3F0B5FBF2F6607002FB1650B6
:10128000B0FBF3F203FB1200A070182931D3182031
:10129000B1FBF0F7B1FBF0F200FB121020704046FA
:1012A00001F0E7F9411C04D0A84202D9461B02E034
:1012B00017E04FF0FF36A7EB071000EB4000C0EB44
:1012C000001005EBC0152946404601F028FA40B948
:1012D000701C01D0711900E03146404601F00BFA54
:1012E00010B10120BDE8F0873946404601F035F9DC
:1012F00000E02170B9F1000F0BD0207801F022F945
:101300002070607801F01EF96070A07801F01AF981
:10131000A0700020E6E7000070B5040003D0607CF8
:10132000002610B105E0012070BD2674204600F0B3
:101330003DF802206074204600F00AF9042550BBF5
:10134000204601F061F930BB2068416821F00701B7
:101350004160A06820B11448016821F001010160DA
:101360001148001F0168A26821F4607111430160F7
:101370006068411C04D10120FFF706FC58B1401EF3
:101380002268C0F303419160216880B2C8602046A2
:1013900001F054F908B16574C5E7E6730120607384
:1013A000A0736074002070BD306C004008B5006808
:1013B000084988420DD1FFF7E1FB0748C16941F0B8
:1013C0000061C161C069054900F000600090012022
:1013D000086008BD00280040001002403C04424262
:1013E0002DE9F0410D4604003BD0C5B3207C012817
:1013F0003AD04FF0010884F8108002206074E87839
:1014000072B301F096F8E073687801F092F86073B7
:10141000A87801F08EF8A073C2B2617BE07B01F086
:101420003FF920732870204601F02AF94FF46161DA
:10143000B0FBF1F1002518292DD91822B1FBF2F1EA
:10144000A1EB011101EB4101C1EB011100EBC11650
:101450003146204601F063F90427C8B90BE000E0EB
:1014600004E00120BDE8F0810220FBE7E07368782A
:101470006073A878CFE7204601F0FBF8411C0AD042
:10148000B04208D206490144204601F034F910B1B7
:1014900067742574E5E784F8118025740020E1E77E
:1014A000805101002DE9F0410D46040024D01DB308
:1014B000207C012823D04FF0010884F810800220FE
:1014C00060742878EAB101F034F84FF4616100FBF0
:1014D00001F6687801F02DF8C0EB001006EB8006ED
:1014E000A87801F026F835182946204601F017F9AA
:1014F0000026042710BB0FE00120BDE8F081022088
:10150000FBE74FF4616148436978C1EB011100EBDF
:101510008100A9784518E7E72068416821F00501B6
:101520004160204601F0A5F8411C0AD0A84208D22B
:1015300006490144204601F0DEF810B167742674B4
:10154000DAE784F8118026740020D6E78051010084
:1015500070B504000AD02068416821F0080141609C
:10156000FFF76EFA05464FF47A7608E0012070BD69
:10157000FFF766FA401BB04201D9032070BD206816
:1015800040680007F4D5002070BD70B5040009D094
:10159000606A002540B125616561A56294F851003B
:1015A00040B10CE0012070BD6068B0F5827FF4D0DE
:1015B000E561F2E784F85050204600F03FF8022041
:1015C00084F851002068016821F040010160A08882
:1015D000218900F4827001F404410843A18901F4D7
:1015E00000610843217C01F002010843217D01F0E4
:1015F00001010843218B01F400710843217F01F0B0
:101600003801084394F8201001F080010843218D2F
:1016100001F40051084321680860A069042101EA2F
:101620001040216848602068C16921F40061C161EF
:101630006565012084F85100002070BD30B585B08B
:101640000024009401940294039400681449884291
:1016500023D11448816941F480518161816901F489
:1016600080510491816941F00401816180690E4DCE
:1016700000F004000490A0200090022001900320BC
:10168000039069462846FFF7D9F84020CDE90004C9
:10169000694628460294FFF7D1F805B030BD000036
:1016A0000030014000100240000801402DE9FF4FCA
:1016B00081B01D46934604464FF001090E9EFFF788
:1016C000BFF9074694F851006168012806D0B1F5CA
:1016D000827F3CD1A168C9BB042838D10298002878
:1016E00071D0BBF1000FFBD0002DF9D094F8500061
:1016F00001282CD04FF0010A84F850A094F8510032
:10170000042802D0052084F851004FF00008C4F8E6
:101710005480C4F838B0E587A58702992163E5862F
:10172000A586C4F84080C4F8448020680168490652
:1017300003D4016841F040010160E068B0F5006F3A
:10174000606808D0F0B3012D49D081E0FFE70220A6
:1017500005B0BDE8F08F08B1012D39D1206B2168AB
:101760000088C860206B801C2063E08E401EE086ED
:101770002EE02068816889070FD5E18E69B1B9F143
:10178000010F0AD1216B0988C160206B801C206386
:10179000E08E401EE0864FF0000920688168C9078E
:1017A0000CD0E18F51B1C068A16B0880A06B801C88
:1017B000A063E08F401EE0874FF00109FFF740F97A
:1017C000C01B01E00BE067E0B04201D3701C50D1B8
:1017D000E08E0028CDD1E08F0028CAD13EE0206BFA
:1017E000216800780873206B401C2063E08E401E47
:1017F000E0862DE02068816889070FD5E18E69B108
:10180000B9F1010F0AD1216B09780173206B401CDB
:101810002063E08E401EE0864FF00009206881685A
:10182000C9070CD0E18F51B1C068A16B0870A06BE3
:10183000401CA063E08F401EE0874FF00109FFF7D6
:10184000FFF8C01BB04202D3701C01D011E086B17A
:10185000E08E0028CED1E08F0028CBD13A46314629
:10186000204600F070FF50B12020606584F8508061
:1018700012E084F851A084F85080032068E7A06843
:1018800018B92068C1688068009084F851A084F875
:101890005080606D0028F1D0012059E710B5401E3E
:1018A000B0F1807F01D3012010BD4FF0E0246061D2
:1018B0000F21601701F076FB0020A0610720206156
:1018C000002010BD7047704770B590F83C20012A89
:1018D00026D0012480F83C40022280F83D20036895
:1018E0005A689D6822F070060A6832435A600D4BB0
:1018F00002689A4208D0B2F1804F05D00A4B9A4252
:1019000002D00A4B9A4204D1496825F0800319435A
:10191000916080F83D40002180F83C10084670BD81
:10192000022070BD002C014000040040000800406F
:1019300090F83D10012901D001207047022180F864
:101940003D100168CA6842F00102CA6000680B4994
:10195000884208D0B0F1804F05D00949884202D0B2
:101960000849884204D1816801F00701062903D0A3
:10197000016841F00101016000207047002C014026
:1019800000040040000800400168CA6822F001021B
:10199000CA6001680A6A41F211131A4207D10A6A41
:1019A0009B101A4203D10A6822F001020A60012149
:1019B00080F83D100020704770472DE9F041044643
:1019C0000068C66805694FF00007A90713D5B1077D
:1019D00011D5F91E016101202077206880698007F8
:1019E000204602D0FFF7E8FF04E000F0A7F8204609
:1019F00000F0EEF82777680716D5700714D5216830
:101A00006FF004000861022020772068806910F4DC
:101A1000407F204602D0FFF7CFFF04E000F08EF8B1
:101A2000204600F0D5F82777280715D5300713D5BD
:101A300021686FF008000861042020772068C069E1
:101A40008007204602D0FFF7B7FF04E000F076F8E9
:101A5000204600F0BDF82777E80616D5F00614D525
:101A600021686FF010000861082020772068C069A5
:101A700010F4407F204602D0FFF79EFF04E000F004
:101A80005DF8204600F0A4F82777E80708D0F007B3
:101A900006D021686FF001000861204600F099F837
:101AA000280608D5300606D521686FF08000086149
:101AB0002046FFF707FF680608D5700606D521689F
:101AC0006FF040000861204600F084F8A8060AD5AF
:101AD000B00608D521686FF0200008612046BDE8F7
:101AE000F041FFF7F0BEBDE8F08170B5044690F814
:101AF0003C00002501280FD0012084F83C006AB189
:101B0000042A0FD0082A11D00C2A13D00125002056
:101B100084F83C00284670BD022070BD206800F0AB
:101B200049FFF4E7206800F06DFFF0E7206800F05F
:101B300095FFECE7206800F0BDFFE8E7704710B5BF
:101B4000040003D094F83D0010B107E0012010BD5F
:101B5000002084F83C00204600F01EF8022084F8A3
:101B60003D00211D206800F0E9FE012084F84600B8
:101B700084F83E0084F83F0084F8400084F8410077
:101B800084F8420084F8430084F8440084F8450057
:101B900084F83D00002010BD08B50068B0F1804F0A
:101BA00012D10A48C16941F00101C161C069002236
:101BB00000F00100009011461C20FEF7ADFFBDE8CB
:101BC00008401C20FEF79ABF08BD0000001002402C
:101BD0007047704770472DE9F84F044690F842006F
:101BE000DDF828901F4615460E46202802D0022018
:101BF000BDE8F88FF6B1EDB14FF00008C4F84480AD
:101C0000222184F8421001212163C4F83480FEF7B8
:101C100017FFA5858246E585A0684FF4805B58458F
:101C200001D1206940B135460026A7F800804FF069
:101C300020083AE00120DBE70025F6E7206801688C
:101C4000C9060AD5016841680091398829B1022086
:101C5000606384F842800020CAE70168890618D5CD
:101C600025B1A168594528D031B107E04068C0F3DB
:101C7000080026F8020B06E02169F1B1406800F087
:101C80007F0005F8010B3888401C3880E08D401E2D
:101C9000E085B9F1FF3F08D0FEF7D2FEA0EB0A01C4
:101CA00049450CD8B9F1000F09D0E08D0028C5D105
:101CB000A08DE18D401A3880CBE74068E1E784F8D9
:101CC0004280032094E718B5034690F8420020288C
:101CD00001D0022018BD61B15AB101201863002063
:101CE0005863184601F00AF80028F3D1196B01294E
:101CF00001D0012018BD19680A6849680091196867
:101D00000C3151E8002F42F0100241E80024002C71
:101D1000F5D118BD024A01201070024801807047B9
:101D2000000000200C00002070470000F8B501689A
:101D300004460868CA684B6910F00F0F4FF00005A1
:101D400059D003F0010602F49077374365D0C107FC
:101D500005D0D10503D5616C41F0010161644107F3
:101D600005D5D90703D0616C41F002016164810798
:101D700005D5D90703D0616C41F004016164010706
:101D800007D502F02001314303D0616C41F0080116
:101D90006164616C00293AD0800604D5900602D5B2
:101DA000204600F0EEFE20684069616CC0F38010B0
:101DB000090700D460B3204600F0BCFE20684069EB
:101DC000400621D52068143050E8001F21F0400162
:101DD00040E80012002AF5D1E06BA8B16D494163DB
:101DE000E06BFEF7CDFC002811D0E06B416B01B039
:101DF000BDE8F040084783060FD593060DD5204671
:101E0000BDE8F84000F0BDBE2046FFF78DFFF8BDED
:101E10002046FFF789FF6564F8BD266B2023012E5D
:101E20007CD1C6067AD5D60678D508684868009071
:101E300048694FF00206400640D5E16B08684068EB
:101E40000004000CE8D0A28D8242E5D9E0858869C3
:101E500020282DD020680C3050E8001F21F480711C
:101E600040E80012002AF5D12068143050E8001F25
:101E700021F0010140E80012002AF5D12068143059
:101E800050E8001F21F0400140E80012002AF5D17F
:101E900084F84230256320680C3050E8001F21F0A0
:101EA000100140E80012002AF5D1E06BFEF744FC77
:101EB0006663A08DE18D401A81B22AE0A08DE18D8C
:101EC000401A81B2E08D0028A6D00029A4D0226853
:101ED0000C3252E8000F20F4907042E80007002F07
:101EE000F5D12068143050E8002F22F0010240E8BC
:101EF0000027002FF5D184F84230256320680C308C
:101F000050E8002F22F0100240E80023002BF5D10A
:101F100066632046FFF7FEFEF8BDFFE705062BD5FA
:101F2000150629D594F841002128F5D1A068B0F50F
:101F3000805F01D12069B0B1206A411C2162216813
:101F400000784860E08C401E0004000CE084E3D17F
:101F50002068C16821F08001C1602068C16841F03B
:101F60004001C160D8E7206A0088C0F308004860DB
:101F7000206A801C2062E5E74006CDD55006CBD50F
:101F8000CA68204622F04002CA6084F8413000F05E
:101F900078F9C1E7252B000870B5040004D094F847
:101FA0004100002510B106E0012070BD84F84050CA
:101FB000204600F023F8242084F841002068C168FE
:101FC00021F40051C160204600F03CFE2068016908
:101FD00021F4904101612068416921F02A014161A9
:101FE0002068C16841F40051C1606564202084F814
:101FF000410084F842006563002070BDF0B585B0F3
:10200000002400940194029403940368424F022038
:1020100042490322424D4602BB4225D18B6943F41B
:1020200080438B618B6903F4804304938B6943F095
:1020300004038B618969039201F004010491010298
:10204000CDE9001069462846FEF7F8FBCDE90064AB
:10205000694628460294FEF7F1FB0022114625202E
:10206000FEF75AFD252028E02E4FBB4229D1CB692F
:1020700043F40033CB61CB6903F4003304938B69E1
:1020800043F004038B618969039201F00401049118
:102090000421CDE9001069462846FEF7CFFB082051
:1020A000CDE90004694628460294FEF7C7FB0022EA
:1020B00011462620FEF730FD2620FEF71FFD05B055
:1020C000F0BD194DAB42FAD1CB6943F48023CB610B
:1020D000CB6903F4802304938B6943F008038B617D
:1020E0008969124D01F00801CDE90321CDE90060B5
:1020F00069462846FEF7A2FBE814CDE900046946CC
:1021000028460294FEF79AFB002211462720FEF78C
:1021100003FD2720D1E700000038014000100240F5
:10212000000801400044004000480040000C01400D
:102130002DE9F84F044690F842009A4616460D469F
:10214000202802D00220BDE8F88FB5B1AEB1002042
:102150006064222184F842102063FEF771FCA6859A
:102160008146E685A0684FF480582027404501D17C
:10217000206920B12E46002529E00120E3E7002652
:1021800025E04B46002220212046CDF800A000F09B
:10219000D0FD18B184F842700320D4E726B1A068BE
:1021A00040451AD038B108E020684068C0F3080004
:1021B00025F8020B08E0206978B12068406800F03B
:1021C0007F0000BF06F8010BE08D401EE085E08D2A
:1021D0000028D6D184F84270B5E720684068F1E75E
:1021E00070472DE9F843044690F84100984616469A
:1021F0000D46202802D00220BDE8F88385B17EB1CB
:1022000000206064212084F84100FEF719FCA684B8
:102210008146E684A0682027B0F5805F02D003E005
:102220000120E9E7206910B12E4600250EE00026C6
:102230000CE08021204600F07CFDA8B9C6B116F85C
:10224000010B21684860E08C401EE084E08C4B4626
:102250004FF00002CDF800800028EAD14FF0400195
:10226000204600F066FD40B184F841700320C3E7CA
:1022700035F8020BC0F30800E3E784F84170002052
:10228000BAE77047FEE700002DE9F04385B000246F
:1022900030480094019402940394816941F0100144
:1022A0008161816901F010010491816941F020018F
:1022B0008161816901F020010491816941F004018B
:1022C0008161816901F004010491816941F0080193
:1022D00081618069012200F008001F4F55030490BE
:1022E00029463846FEF7A7FBDFF870900122114619
:1022F0004846FEF7A0FB0095032601250396CDE98D
:10230000015469463846FEF799FAAF0300970396E1
:10231000DFF84C80CDE9015469464046FEF78EFA5D
:10232000012239464046FEF786FB03960095CDE92B
:10233000015469464846FEF781FA2803CDE90005B5
:10234000CDE9024669464046FEF778FA05B0BDE899
:10235000F08300000010024000100140000801401E
:10236000000C01401CB50024184801941649009443
:102370000160611E41604FF480718160FEF7CCFF07
:1023800008B1FEF7D7F98DF804408DF805408DF8B7
:102390000640012201A90D48FFF784F808B1FEF7B5
:1023A000C9F901208DF800008DF801008DF80200B8
:1023B00002468DF8034069460448FFF711F80028EB
:1023C00001D0FEF7B7F91CBD00280040A002002094
:1023D000104810B50E4901604FF482714160002130
:1023E0008160C1604FF400720161C0E905120822EA
:1023F000C0E90721416281620A21C162FFF7C5F885
:10240000002803D0BDE81040FEF794B910BD0000CD
:10241000003001404802002010B58AB00024079423
:102420001C2168460894FDF7A8FE15484FF080412E
:10243000016041F61F41C0E9011442F20F71C0E989
:1024400003148461FFF77BFB08B1FEF773F907946F
:1024500007A90B480894FFF737FA08B1FEF76AF9A5
:102460000094019402940022694605480494FFF701
:102470003CFB002801D0FEF75DF90AB010BD00005A
:10248000C40000200C4810B50A4901604FF4E13146
:102490004160002181600C22C160C0E904128161A9
:1024A000C161FFF779FD002803D0BDE81040FEF7B9
:1024B00041B910BD003801400C0100200C4810B596
:1024C0000A4901604FF4E1314160002181600C2232
:1024D000C160C0E904128161C161FFF75DFD0028A0
:1024E00003D0BDE81040FEF725B910BD0044004000
:1024F000540100200C4810B50A4901604FF4E13145
:102500004160002181600C22C160C0E90412816138
:10251000C161FFF741FD002803D0BDE81040FEF780
:1025200009B910BD004800409C010020FEE7FEE70D
:102530007047010901EB810100F00F0000EB410041
:10254000C0B27047002102E00A38C0B2491C0A2814
:10255000FAD2090740EA116070472DE9F0410446BC
:102560000025C07B627BA37B42E0012A16D0032AB0
:1025700014D0052A12D0072A10D0082A0ED00A2A11
:102580000CD00C2A0AD0042A10D0062A0ED0092A10
:102590000CD00B2A0AD0022A0DD028E01F2B0CD316
:1025A0000C2A05D101221346401C20E01E2B04D327
:1025B0000123521C1BE01C2B02D203F1010316E085
:1025C00011D183B29E0710D16426B3FBF6F706FB48
:1025D000173636B94FF4C876B3FBF6F706FB173358
:1025E0001BB91D2303E01D2B01D1032201236D1C08
:1025F0008D42BAD3D1B2E0736173DAB2A27300F044
:102600004FF82073BDE8F08170B50446FEF718FA64
:1026100005464FF47A7606E0FEF712FA401BB04208
:1026200001D9032070BD206840688006F4D5206879
:10263000416841F010014160002070BD70B5044652
:102640000068416821F010014160FEF7F9F9054684
:102650004FF47A7607E000BFFEF7F2F9401BB04274
:1026600001D9032070BD206840688006F4D50020A1
:1026700070BD0168086A496A89B241EA0040704742
:10268000006881698AB2C1698BB2816989B28A4264
:1026900003D0C06961F31F40704743EA02407047AE
:1026A000F0B56424C1EBC1030927A500072603EB9D
:1026B00001130329B3FBF7F100F5FA60114401445B
:1026C0000AD2401EB0FBF4F201EB9001B0FBF5F032
:1026D000891A0844001D08E0B0FBF4F201EB9001F8
:1026E000B0FBF5F0891A0844801CB0FBF6F106FB3C
:1026F0001100C0B2F0BD70B50D4606460024FFF7CC
:1027000083FF48B93168280C08623168A8B2486272
:102710003046FFF793FF00B10124204670BD70B52D
:102720000D4606460024FFF76FFF48B93168280CB4
:1027300088613168A8B2C8613046FFF77FFF00B1F9
:102740000124204670BDF8B515460E460B46009292
:1027500004460122022100F021F840B9334600224C
:1027600080212046009500F019F8002804D0606D03
:1027700040F0200060650320F8BD000001B582B084
:102780004FF47A700090012301AA02A90248FEF7D3
:102790008DFF9DF804000EBD480200202DE9F8438E
:1027A0001E46914688460446089DFEF749F9401B9F
:1027B000351AFEF745F9074625480068C0F3CB30C7
:1027C000684338E0701C37D0FEF73AF9C01BA842C6
:1027D00003D215B1009860B32CE02068416821F065
:1027E000E00141606068B0F5827F0BD1A068B0F570
:1027F000004F02D0B0F5806F04D12068016821F04D
:1028000040010160A06AB0F5005F09D1206801684D
:1028100021F4005101602068016841F40051016019
:10282000012084F85100002084F850000320BDE806
:10283000F8830025401E00902068816838EA010076
:1028400004D000214945BDD10020F0E70121F9E77E
:1028500024000020704770B5144605460122FEF79B
:1028600021FE08B172B6FEE7012221462846FEF796
:10287000B7FD002801D072B6FEE770BDFEF7E6B8DE
:1028800070B594B028216846FDF777FC14210AA89A
:10289000FDF773FC00250F95092001241095009089
:1028A000119512954FF4803004940694CDE90105FA
:1028B0000226CDE907604FF4E01009906846FEF764
:1028C00007FB08B172B6FEE70F20CDE90A064FF408
:1028D0008060CDE90C5002210AA80E95FEF71CFA83
:1028E00008B172B6FEE74FF40070CDE90F400FA8B3
:1028F000FEF79CF9002801D072B6FEE714B070BD57
:102900007047000010B50A48FFF757F8094901223F
:10291000087800B90A7008780523B0FBF3F403FBCC
:1029200014030BB9044B1A70401C087010BD000052
:10293000C40000200100002002000020F0B5026861
:10294000194B1A4C1A4D4FF08047984205D0B842A7
:1029500003D0A04201D0A84203D122F070064A68F9
:102960003243984205D0B84203D0A04201D0A842D9
:1029700003D122F44074CA6822434C6922F08002D9
:10298000224302608A68C2620A688262984201D168
:1029900009690163012141610169C90703D0016926
:1029A00021F001010161F0BD002C01400004004054
:1029B0000008004030B5036A026A22F00102026298
:1029C0004268846924F073050C682C4323F00205E7
:1029D0008B682B430A4DA8420BD123F00805CB6826
:1029E00022F440722B434D6923F0040315438A6996
:1029F0002A434260846149684163036230BD00003C
:102A0000002C014030B5026A036A23F01003036210
:102A1000436884690D6824F4E64444EA05248D681B
:102A200022F0200242EA05120B4DA8420ED1CD68D9
:102A300022F0800242EA05124D6923F4406343EA22
:102A400085038D6922F0400243EA85034360846177
:102A500049688163026230BD002C014030B5036AD1
:102A6000026A22F4807202624268C46923F400732D
:102A700024F073050C682C438D6843EA05230C4D44
:102A8000A8420ED1CD6823F4006343EA05234D69C3
:102A900022F4405242EA05128D6923F4806342EA2F
:102AA00005124260C4614968C163036230BD000021
:102AB000002C014030B5046A026A22F4805202629E
:102AC0004268C3690D6823F4E64343EA05238D6831
:102AD00024F4005444EA0534064DA84204D14D695B
:102AE00022F4804242EA85124260C361496801646F
:102AF000046230BD002C014070B5094D4FF4804494
:102B000021462846FDF78AFF012806D001222146EA
:102B10002846BDE87040FDF78EBF0022F7E70000B1
:102B2000000C014010B5406A0021C185C184FFF747
:102B3000FBF810BD01680C3151E8002F22F49072AF
:102B400041E80023002BF5D10168143151E8002F32
:102B500022F0010241E80023002BF5D1016B01298D
:102B600009D101680C3151E8002F22F0100241E830
:102B70000023002BF5D1202180F8421000210163B1
:102B8000704708B590F84210222901D0022008BDF4
:102B900082684FF480539A4201D1016921B1816A60
:102BA0009A421BD04AB10AE00268816A5268C2F3B5
:102BB00008020A80816A891C08E0026972B1026811
:102BC000526802F07F020A70816A491C8162C18DDD
:102BD000491E0904090CC18503D01BE00268526834
:102BE000F1E70168CA6822F02002CA600168CA6879
:102BF00022F48072CA6001684A6922F001024A61C7
:102C0000202180F8421000214163026B012A03D089
:102C1000FFF7E6FA002008BD016301680C3151E8B6
:102C2000002F22F0100241E80023002BF5D10168AB
:102C30000A68D20602D50A6849680091818DFFF7BB
:102C400069F8E7E770B5044600680169E26821F4B5
:102C50004051114301612169A0680843616908433B
:102C60002168CA6841F20C639A430243CA60206833
:102C70004169A26921F44071114341611E492068F4
:102C8000884202D1FEF7EEF801E0FEF7DBF800EB38
:102C9000C00101EB0012606864218000B2FBF0F318
:102CA000B3FBF1F36FF018067343B2FBF0F5B2FB20
:102CB000F0F605EB8305322303EB0515B5FBF1F5C3
:102CC000B6FBF1F605F0F00505EB0615B2FBF0F6E4
:102CD000B2FBF0F0B0FBF1F06FF01802504306EBDE
:102CE000800003EB0010B0FBF1F0216800F00F0052
:102CF0002844886070BD00000038014081628285F0
:102D0000C28500214164222180F84210016921B16D
:102D10000168CA6842F48072CA6001684A6942F078
:102D200001024A610068C16841F02001C1600020D1
:102D300070472DE9F843984617460D460446089E0D
:102D400024E0701C22D0FDF77BFEA0EB0800B0420F
:102D50001AD8CEB12068C168490717D5802D15D083
:102D6000402D13D00168C94309070FD4016800251D
:102D7000406800902046FFF7DDFE0820606484F87C
:102D800040500120BDE8F8830320FBE7206800687D
:102D900035EA000004D00020B842D2D00020F1E78C
:102DA0000120F9E70148FEF7C1BF00000C01002037
:102DB0000148FEF7BBBF000054010020FEE7000001
:102DC00070B50C46054600F09DF800F0C7F82804E1
:102DD0000F4D00EB0434002201212846FDF72BFEA5
:102DE0002020FFF7CBFCC4F30740FFF7C7FCC4F378
:102DF0000720FFF7C3FCE0B2FFF7C0FC0122114639
:102E00002846FDF718FEBDE8704000F093B80000BA
:102E1000000801402DE9F0471C46DDE908951646FB
:102E20000F46804600F06EF800F098F84FEA084030
:102E300000EB073000EB0620144E04440022012171
:102E40003046FDF7F8FD0220FFF798FCC4F3074079
:102E5000FFF794FCC4F30720FFF790FCE0B2FFF704
:102E60008DFC002406E000BF19F80400FFF786FC83
:102E7000641CA4B2AC42F7D3012211463046FDF7E0
:102E8000DAFDBDE8F04700F055B800000008014049
:102E90002DE9F0471C46DDE9089516460F468046A9
:102EA00000F030F84FEA084000EB073000EB062056
:102EB000134E0444002201213046FDF7BCFD0320DF
:102EC000FFF75CFCC4F30740FFF758FCC4F307208E
:102ED000FFF754FCE0B2FFF751FC002406E0FF20AE
:102EE000FFF74CFC09F80400641CA4B2AC42F6D312
:102EF0003046BDE8F04701221146FDF79CBD0000B9
:102F00000008014010B50A4C002201212046FDF7BF
:102F100092FD0520FFF732FCFF20FFF72FFCC007D2
:102F2000FAD120460122BDE810401146FDF783BDCD
:102F30000008014010B5084C002201212046FDF791
:102F40007AFD0420FFF71AFC20460122BDE810405C
:102F50001146FDF770BD00000008014010B5084C97
:102F6000002201212046FDF766FD0620FFF706FC42
:102F700020460122BDE810401146FDF75CBD00006F
:102F8000000801400FB4054B10B503A9044A02988C
:102F900000F0EAF810BC5DF814FB0000BD3C00082E
:102FA000280000200907090E002804DB00F1E020BA
:102FB00080F80014704700F00F0000F1E02080F866
:102FC000141D704702E008C8121F08C1002AFAD178
:102FD00070477047002001E001C1121F002AFBD199
:102FE000704700002DE9FF5F82B00021DDE9043069
:102FF000020DDDF840B0034318D044F61050A2F2A1
:10300000FF3242431514119801281FD0A5EB0B0085
:10301000401C5FEA000A4FF000064E4FDFF838917F
:10302000B046504615D5CAF1000413E011980124AA
:103030004AA3012801D16FEA0B010298119AC0E955
:103040000031C0E9024206B0BDE8F09FCBF10000BC
:10305000DFE704460021404A491842EB0450CDE91D
:10306000001012E0E00707D032463B464046494692
:10307000FDF795F98046894632463B46104619468B
:10308000FDF78DF906460F466410002CEAD1DDE904
:103090000401DDE90023BAF1000F06DAFDF77FF93C
:1030A00042464B46FDF77BF905E0FDF7EAF942465B
:1030B0004B46FDF7E6F904460E460022284BFDF785
:1030C00067FA03D84FF0FF30014607E00022254B96
:1030D00020463146FDF7BCF8FDF742FA102409E01E
:1030E000002C0ADB0A220023FDF781F8039B303213
:1030F0001A55641E50EA0102F2D1641C039AC4F10D
:1031000011031444119A012A03D0012208430DD15E
:103110000AE0084304D000204FF0110B119072E731
:10312000A3EB0B056D1E0DE05B4504DD4FF00002C7
:1031300005F1010504E003DA4FF00002A5F10105F5
:10314000002AECD002981199C0E90231C0E900458B
:1031500079E70000000014400000F03F300000005C
:103160000000F0430000E03F2DE9FF4F95B09A4684
:10317000884606460025EEE1252877D1002427461B
:10318000F94A0121039400E0044316F8013F203B73
:1031900001FA03F01042F7D130782A2811D06FF0ED
:1031A0002F033078A0F13002092A16D8039A44F090
:1031B000020402EB820203EB42021044761C0390ED
:1031C000EFE758F8042B0392002A03DA504244F444
:1031D0000054039044F00204761C30782E2816D157
:1031E00016F8010F44F004042A280DD06FF02F02C6
:1031F0003078A0F13003092B09D807EB870302EBE5
:103200004303C718761CF3E758F8047B761C307824
:103210006C280FD006DC4C2817D068280DD06A28FF
:1032200014D104E0742810D07A280FD10DE044F4B2
:1032300000140AE044F4801401E044F4401472786D
:10324000824202D104F58014761C761C3078662800
:103250000BD013DC582877D009DC002875D045281E
:10326000F6D04628F4D047281AD193E118E0632815
:1032700035D0642879D0652812D18BE1702873D0BD
:1032800008DC6728F1D069286FD06E280DD06F2830
:1032900006D1ACE073282CD0752874D0782853D090
:1032A0005246179990476D1C54E1C4F3025002280E
:1032B00009D003280DD0D8F8001004280DD00D60D7
:1032C00008F1040846E1D8F80010EA17C1E90052F5
:1032D000F6E7D8F800100D80F2E70D70F0E718F867
:1032E000041B8DF8001000208DF80100EB46012032
:1032F00003E058F804BB4FF0FF3061074FF00001C6
:1033000002D40DE009F101018946B9420FDA814585
:10331000F8DB1BF809100029F4D108E009F10101DC
:1033200089468142FADB1BF809100029F6D103987F
:103330005346A0EB090721463846179A00F080FA59
:10334000284400EB090507E044E008E10DE01BF824
:10335000010B524617999047B9F10109F7D253462C
:1033600021463846179AF2E039E00A21C4F30252A6
:103370004FF0000B0091022A06D058F8040BC11739
:10338000032A09D00AE023E008F1070020F0070231
:10339000F2E80201904605E000B2C117042A01D10B
:1033A00040B2C117002906DA0A460021404261EB0B
:1033B00002012D2202E0220504D52B228DF80420E3
:1033C000012203E0E20701D02022F7E7914657E00F
:1033D0000A2100E010214FF0000B00910BE01021BA
:1033E0004FF0000B44F004040827009103E008208C
:1033F0004FF0000B0090C4F30252022A05D058F897
:10340000040B0021032A08D008E008F1070020F08F
:103410000702F2E80201904603E080B2042A00D1DC
:10342000C0B24FF0000922072AD53278702A07D09F
:10343000DDF800C08CF0100C5CEA0B0C05D00EE03F
:1034400040228DF80420012208E050EA010306D052
:1034500030238DF804308DF8052002229146009B20
:1034600083F0080353EA0B030AD150EA010201D1A9
:10347000620705D530228DF804204FF001097F1E28
:103480003278582A04D039A20C920CAA02920BE08E
:103490003BA2F9E75B46009AFCF7A9FE0C9B9B5CFC
:1034A000029A521E0292137050EA0102F2D102985F
:1034B00004A9081A00F1200B600702D524F4803417
:1034C00000E001275F4502DDA7EB0B0000E00020D4
:1034D00000EB0B01009003984944401A0390E0036D
:1034E00006D453462146179A039800F0A9F90544DB
:1034F000002706E001A85246C05D179990476D1C51
:103500007F1C4F45F6DBE0030CD553462146179A46
:10351000039800F095F9054404E0302052461799CD
:1035200090476D1C0099481E00900029F5DC08E0CA
:103530000298029952460078491C029117999047C7
:103540006D1CBBF10001ABF1010BF1DC5BE100F0A4
:1035500065F90544761C307800287FF40DAE19B06B
:103560002846BDE8F08F00000928010030313233D1
:1035700034353637383961626364656600000000AF
:103580003031323334353637383941424344454699
:1035900000000000600700D4062708F1070020F0B3
:1035A0000700F0E80223804603F0004C5FEA0C00BD
:1035B00001D097A009E0200501D596A005E0E0071D
:1035C00001D095A001E0AFF24C001390307823F0C9
:1035D000004365280CD006DC452809D046281DD0BC
:1035E00047287FD13BE0662818D067287AD136E09B
:1035F0000021112F01DB112000E0781CCDE9000132
:1036000004A90CA8FFF7EEFCDDE90D010C9A4FF0C0
:10361000000B07F10109109200914EE04FF00040BD
:103620000097CDE9011004A90CA8FFF7DBFCDDE948
:103630000D020C9B0F994FF0000B914610930092D6
:1036400011B9791C00EB0109B7EB090003D4C0F1F3
:10365000FF3B07F10109A9EB0700019042E0012FB0
:1036600000DA01270021112F01DD112000E038468A
:10367000CDE9000104A90CA8FFF7B4FCDDE90D01B8
:103680000C9A00914FF0000BB946109221070FD40D
:10369000009A4A4503DA914601E0A9F10109B9F11E
:1036A000010F05DD109AA9F10101515C3029F4D018
:1036B000B84202DA10F1040F03DA0121CDE901105A
:1036C00010E0002803DC8344A9EB000102E0411C68
:1036D000494500DD8946A0EB0B00401C01904FF0EE
:1036E00000400290200705D40198484502DB4FF0C6
:1036F000FF30019000208DF84B0002980DF14B0730
:10370000B0F1004F25D002200C902B200D90029894
:1037100000280CDA404202902D200D9007E00A218B
:103720000298FCF74EFD3031029007F8011D0C990C
:10373000481E0C900029F2DC02980028EFD1791E77
:103740000D980870307800F0200040F0450007F830
:10375000020D11A8C01BC01D02901398007800B183
:10376000012000EB0901019801EBE071029801448E
:103770000398401A401E0390E00306D453462146A6
:10378000179A039800F05CF805441398007818B174
:103790005246179990476D1CE00323D553462146A6
:1037A000179A039800F04CF805441BE0BBF1000F9A
:1037B00007DB0098584504DD1098179910F80B00A6
:1037C00001E0179930205246904701980BF1010B08
:1037D000401E05F10105019004D12E205246179993
:1037E00090476D1CB9F10001A9F10109DEDC05E08B
:1037F00017F8010B5246179990476D1C0299481E05
:1038000002900029F4DC53462146179A03989EE65D
:103810002D0000002B000000200000002DE9F041E9
:10382000044600251E461746880404D405E03946A0
:103830002020B0476D1C641EF9D52846BDE8F081F4
:103840002DE9F041044600251E469046C80301D5E7
:10385000302700E02027880404D505E0414638469B
:10386000B0476D1C641EF9D52846BDE8F081000004
:1038700030B587B00546154C03A8009002AB05AAE9
:1038800006A9206800F024F89DF80C00F9280AD950
:1038900000208DF80C009DF80800401C8DF80800F1
:1038A0002068383001E02068323020603220CDE9D5
:1038B00000509DF80C309DF808209DF814109DF8DC
:1038C0001800FFF7A7FA07B030BD00001400002071
:1038D00030B5050C039C0D70C0F303311170C0F3BB
:1038E00003211970207030BD2DE9F047334C94B09E
:1038F000207800285FD1617831A0FFF743FB607822
:10390000411C6170022856D90025657000F09AF8B4
:10391000002850D0012020702DA0FFF733FB314844
:103920000078012805D014B02FA0BDE8F047FFF7BC
:1039300029BB002431A0FFF725FB364E36A0317895
:10394000FFF720FB21463AA0FFF71CFBA9460FAF6B
:1039500002AD4FF032084FF4FA7A307884422AD020
:1039600010AB11AA12A920460097FFF7B1FF9DF8EE
:103970003C00F92808D99DF840008DF83C90401C87
:103980008DF84000383400E03234CDE900589DF81D
:103990003C309DF840209DF844109DF84800FFF70A
:1039A00077FA02A8FFF7EEFA02A800F077F950467E
:1039B000FCF732FFD1E714B0BDE8F0870E0000201D
:1039C00020636F756E74203D202564200D0A000071
:1039D0005265636F6E6E65637420737563636573A0
:1039E000730D0A00030000205265636F6E6E6563FD
:1039F00074206661696C0D0A000000005265636FF7
:103A00006E6E6563742073656E64206361636865C0
:103A10000D0A0000140000207772697474656E5FEF
:103A2000706F696E746572203D2025640D0A000078
:103A30006E6F77706F696E746572203D2025640D1E
:103A40000A00000010B58AB040A0FFF79BFAFEF70D
:103A500051FD42A000F022F94FF47A742046FCF7A1
:103A6000DBFE41A000F01AF923460C2269464048CB
:103A7000FEF75EFB3FA16846FCF78AFB00285DD09D
:103A80003EA0FFF77FFA00200090019002902046B0
:103A9000FCF7C2FE3DA000F001F945A0FCF722FEB4
:103AA00000283DD045A0FFF76DFAFA20FCF7B4FEE0
:103AB00047A000F0F3F850A0FCF714FE002834D023
:103AC00050A0FFF75FFAFA20FCF7A6FE51A000F025
:103AD000E5F82346232269462548FEF729FB25A160
:103AE0006846FCF755FB002828D024A0FFF74AFAC7
:103AF000FA20FCF791FE4BA000F0D0F84DA0FCF7A7
:103B0000F1FD00B34CA0FFF73DFAFA20FCF784FE6C
:103B10004EA0FFF737FA4F49012008700AB010BDD8
:103B20004DA000BFFFF72EFA06E04EA0FFF72AFADD
:103B3000514952A0FFF726FA0020EFE751A0FFF706
:103B400021FA6846EEE751A0ECE700006573703893
:103B50003236365F696E69740D0A000041542B528B
:103B600053540D0A0000000041540D0A00000000EB
:103B70009C0100204F4B0D0A0000000041542073AF
:103B80007563636573730D0A0000000041542B4395
:103B9000574A41503D226875617765693132332259
:103BA0002C22313131323232333333220D0A0000CC
:103BB000474F542049500D0A00000000415443571C
:103BC0004A415020737563636573730D0A000000EA
:103BD00041542B43495053544152543D2254435075
:103BE000222C223137322E32302E31302E33222CFD
:103BF000383038300D0A0000434F4E4E4543540DC7
:103C00000A00000041545443502073756363657388
:103C1000730D0A0041542B4349504D4F44453D31EB
:103C20000D0A000041542B43495053454E440D0AA0
:103C3000000000003E000000415443495053454EEF
:103C40004420737563636573730D0A00646F6E655A
:103C50000D0A00000E000020574946496572726F38
:103C6000720D0A00544350434F4E4E454354657203
:103C7000726F720D0A000000E401002025730D0A26
:103C8000000000006572726F7200000043495053DB
:103C9000454E446572726F720D0A000010B50446FD
:103CA000FCF788FA214682B2BDE810404FF0FF339E
:103CB0000148FEF796BA00009C01002013B54FF4AE
:103CC0007A73012269460248FEF78BFA00981CBD00
:103CD0005401002092B0FCF7C1FEFEF7D1FDFEF7C3
:103CE000D3FAFEF7CFFBFEF7E9FBFEF73BFBFEF74F
:103CF0006FFBFFF7A7FE08B1D6A000E0DAA0FFF740
:103D000041F9FEF789FBC820FCF786FD202232210D
:103D1000DB48FCF72BFA0024019412208DF80400F4
:103D2000212000948DF805004FF0010A8DF806005F
:103D30008DF800A08DF801A002208DF8020023204C
:103D40008DF803006A4601A9CE48FEF784FDCEA097
:103D5000FFF718F910A90FA800F028FACEA0FFF776
:103D600011F99DF83C10CFA0FFF70CF9BDF84010F9
:103D7000CFA0FFF707F93422D0A102A8FCF7E4F99D
:103D800002A9DBA0FFF7FEF800210846FFF718F8AC
:103D90004FF47A7633460122D7A1D848FEF721FAAC
:103DA000FEF7AAFED648FDF7C3FDDFF8D492D54D45
:103DB000A9F164094FF4005BB14932466439CF4838
:103DC000FDF781FF287888B15946CF48FCF72BFED4
:103DD00099F8023099F8012099F80010CBA0FFF76C
:103DE000D1F8002000F0B4F92C7006E0A878012882
:103DF000E2D1AC70CBA0FFF7C5F86C70C048FDF7FE
:103E0000C3FDFEF779FEC820FCF706FD334601220C
:103E1000C7A1BA48FEF7E5F9B948FDF789FDFEF7F5
:103E20006BFE974932466439B448FDF74CFF287859
:103E300088B15946B448FCF7F6FD99F8023099F874
:103E4000012099F80010B1A0FFF79CF8012000F0C4
:103E50007FF92C7006E0A8780128E2D1AC70B1A0FF
:103E6000FFF790F8A8466C70A548FDF78DFDFEF7AA
:103E700043FE834D00273946EA5DAEA0FFF782F886
:103E80007F1CFFB2322FF6D37D48FFF707FF37467E
:103E90003B46012298A19948FEF7A3F9FEF72CFEB4
:103EA0009748FDF745FD464675493A4664399348BB
:103EB000FDF709FF307888B159469348FCF7B3FD08
:103EC00099F8023099F8012099F800108FA0FFF7B7
:103ED00059F8002000F03CF9347006E0B078012871
:103EE000E2D1B4708FA0FFF74DF874708448FDF7ED
:103EF0004BFDFEF701FEC820FCF78EFC3B4601227D
:103F00008BA17E48FEF76DF97D48FDF711FDFEF7A8
:103F1000F3FD5B493A4664397848FDF7D4FE3078C2
:103F200088B159467848FCF77EFD99F8023099F837
:103F3000012099F8001075A0FFF724F8012000F087
:103F400007F9347006E0B0780128E2D1B47075A0AA
:103F5000FFF718F874706A48FDF716FDFEF7CCFD00
:103F600068490022091D4748FDF769F965490022A3
:103F7000C91D4448FDF73CF93220624A28703020C0
:103F8000D21D6870D3780A20B3FBF0F13031A970EC
:103F9000B3FBF0F100FB11313031E9705178B1FB26
:103FA000F0F330332B71B1FBF0F300FB1311303120
:103FB00069719178B1FBF0F23032AA71B1FBF0F285
:103FC00000FB12114F4A3031121DE9711378B3FB17
:103FD000F0F130312972B3FBF0F100FB11313031D7
:103FE00069725178B1FBF0F33033AB72B1FBF0F38F
:103FF00000FB13113031E9729178B1FBF0F23032ED
:104000002A73B1FBF0F200FB1210303068734B489A
:10401000007890B11A48FFF741FE00BFFFF764FC3B
:1040200047A0FEF7AFFF4FF480514648FCF7FBFC7A
:1040300041F28830FCF7F0FB2AE743A0FEF7A2FF2D
:104040000F48FEF79FFF86F803A00D48FFF710FC0E
:10405000E4E700006573703832363620696E6974A3
:10406000206F6B0D0A000000657370383236362001
:10407000696E6974206572726F720D0A000000002B
:1040800090000020A002002068656C6C6F20776FA4
:10409000726C640A0000000068656C6C6F776F7268
:1040A0006C640A006D69643A202523780A000000D8
:1040B0006469643A202523780A00000032303232E5
:1040C0003131323732303330333033362E373839BE
:1040D00036352E3638373334352E303033362E37AA
:1040E000383936352E3638373334352E30300000F7
:1040F00025730D0A00000000320000000C010020B2
:10410000C4000020000000200010014074656D70A4
:104110002068756D693A25642025642025640D0AA0
:104120000000000074696D656F75740D0A00000071
:104130003100000025643A25630D0A000E000020BE
:104140000D0A0000000C01406164640D0A000000CB
:1041500030B5154A0A2100EBC005137802F164005E
:10416000B3FBF1F400EB450030348473B3FBF1F49E
:1041700001FB14333033C3735378B3FBF1F43034A1
:104180000475B3FBF1F401FB1433303343759278BB
:10419000B2FBF1F330338376B2FBF1F301FB132171
:1041A0003031C17630BD00002C00002070B5124EB9
:1041B0000C460546002201213046FCF73CFC9F20BE
:1041C000FEF7DCFA9F20FEF7D9FA28700020208045
:1041D000FF20FEF7D3FA218841EA00202080FF204B
:1041E000FEF7CCFA2188084320803046BDE87040B5
:1041F00001221146FCF71FBC000801400102020326
:104200000405060708090A0B0C0D0E0F1010010219
:1042100002030405060708090A0B0C0D0E0F101007
:104220000000000000000000010203040607080966
:1042300000000000010203045842000800000020B2
:104240002C000000C42F0008844200082C0000202D
:104250008C060000D42F00080000000000000000C1
:10426000000000000000000000000000000000004E
:1042700001000000100000000000000000127A00A1
:04428000000000003A
:04000005080000ED02
:00000001FF
