:020000040800F2
:100000003806002005010008EB1600082D15000831
:10001000E9160008D10100080D1C000800000000CE
:10002000000000000000000000000000EF160008C3
:10003000D301000800000000ED160008F1160008CA
:100040001F0100081F0100081F0100081F01000810
:100050001F0100081F0100081F0100081F01000800
:100060001F0100081F0100081F0100081F010008F0
:100070001F0100081F0100081F0100081F010008E0
:100080001F0100081F0100081F0100081F010008D0
:100090001F0100081F0100081F0100081F010008C0
:1000A0001F0100081F0100081F0100081F010008B0
:1000B000551700081F0100081F0100081F01000854
:1000C0001F0100081F0100081F0100081F01000890
:1000D0001F010008F51B0008011C00081F01000893
:1000E0001F0100081F0100081F010008DFF810D0E1
:1000F00000F05CF800480047A5200008AFF300803E
:10010000380600200648804706480047FEE7FEE71D
:10011000FEE7FEE7FEE7FEE7FEE7FEE7FEE7FEE7B7
:1001200053170008ED000008D2B201E000F8012BDF
:10013000491EFBD270470022F6E710B513460A4667
:1001400004461946FFF7F0FF204610BD30B50546BE
:100150002A460B4612F8010B13F8014B08B1A042D6
:10016000F8D01CB1002802D06D1CF1E7284630BD44
:10017000421C10F8011B0029FBD1801A704730B5D2
:100180000B46014600202022012409E021FA02F555
:100190009D4205D303FA02F5491B04FA02F52844EF
:1001A000151EA2F10102F1DC30BD0000064C074D26
:1001B00006E0E06840F0010394E807009847103437
:1001C000AC42F6D3FFF796FF98230008B823000847
:1001D000FEE77047F8B506460F244FF4FA6515E0C0
:1001E0000D4B64220D490E48009500F048FE50B9B1
:1001F00031460A48FFF7AAFF28B164210748FFF7F4
:100200009AFF0120F8BD0A2000F07EF82046641E07
:10021000E4B2E5D2F8BD000006000020D4010020C1
:100220008C01002072B6FEE710B590F82110002274
:10023000022905D00421816380F82020012010BD0F
:1002400001680B6823F00E030B6001680B6823F054
:1002500001030B6090F84030C46B012101FA03F3F5
:10026000636080F8211080F82020104610BD000047
:1002700010B590F821100024022903D004218163D5
:1002800001243DE001680A6822F00E020A6001685C
:100290000A6822F001020A601A4A0168914201D1FB
:1002A000012121E0174A1432914201D110211BE0B3
:1002B000144A2832914201D1891515E0114A3C3285
:1002C000914201D189140FE00E4A5032914202D17D
:1002D0004FF4803108E00B4A6432914202D14FF46E
:1002E000801101E04FF08071064A083A5160012107
:1002F00080F82110002180F82010416B01B188475F
:10030000204610BD0800024070B5044600F010F908
:100310000546601C02D004480078044400F008F947
:10032000401BA042FAD370BD080000202DE9F84F11
:10033000DFF8B8910024A9F1040B23460F2709F137
:10034000040AABF1040EC9E00125A5402A40AA42E7
:100350007DD1674ED1F804C0ACEB0608B44532D06D
:1003600014DCBCF1030F3AD009DCBCF1000F2AD039
:10037000BCF1010F1CD0BCF1020F31D11DE0BCF16A
:10038000110F17D0BCF1120F2AD119E0B8F5881F50
:1003900019D006DCB8F5803F15D0B8F5801F1FD105
:1003A00011E0B8F5001F0ED0B8F5041F18D10AE00F
:1003B000CB6815E0CB681B1D12E0CB6808330FE05B
:1003C000CB680C330CE08B682BB1012B4FF008038A
:1003D00003D0456104E0042302E0056100E000234E
:1003E000FF2A01D8064601E000F104064FEA840521
:1003F00001D9A5F12005D6F8008007FA05FC28EA06
:100400000C0803FA05F548EA0508C6F800804D68AF
:10041000ED0062D5374DAE6946F00106AE61AD69BB
:1004200024F0030605F001050095334D06EB050C9D
:10043000DCF80850A607360F07FA06F825EA080583
:10044000DFF8B880404503D14FF0000817E044E0E2
:10045000DFF8AC80404502D14FF001080FE0DFF833
:10046000A480404502D14FF0020808E0DFF89880F0
:10047000404502D14FF0030801E04FF0040808FAAC
:1004800006F848EA0508CCF808804D68D9F80060FD
:10049000ED024D4601D5164300E096432E604D68AF
:1004A000DAF80060AD02554601D5164300E09643E8
:1004B0002E604D68DBF80060AD035D4601D5164344
:1004C00000E096432E604D68DEF80060ED0375464F
:1004D00001D5164300E096432E60641C0D682A4641
:1004E000E5407FF431AFBDE8F88F0000080401401B
:1004F00000001110001002400000014000080140FF
:10050000000C0140001001400014014080680840C8
:1005100000D001207047C26821EA02030A4043EA82
:100520000241016170470AB1016170470904FBE7AC
:100530000148806870470000080000200248816878
:10054000027811448160704708000020074810B508
:10055000016841F010010160032000F075F80F20E0
:1005600000F006F800F024F8002010BD0020024042
:1005700070B50D4D04464FF47A712878B1FBF0F058
:100580000A490968B1FBF0F000F0DCFA48B9102C18
:1005900007D200222146501E00F036F800206C6081
:1005A00070BD012070BD0000080000201400002074
:1005B0000C4808B5816941F001018161816901F050
:1005C00001010091C16941F08051C161C06900F031
:1005D000805000900448416821F0E06141F00071D2
:1005E000416008BD0010024000000140002809DB06
:1005F00000F01F02012191404009800000F1E0203D
:10060000C0F8001170470000F0B40E4B1B680C4698
:10061000C3F30223C3F10705042D00D90425191DD6
:10062000072901D2002300E0DB1E012606FA05F1AE
:10063000491E214099409E40761E16403143F0BC31
:1006400001F0F6BA0CED00E0064900F00702086878
:100650004FF6FF03184040EA0220034A10430860A7
:10066000704700000CED00E00000FA052DE9F047AE
:100670000F46050061D0434E306800F00700B842D5
:1006800009D2306820F0070038433060306800F04D
:100690000700B84251D128683B4C810712D540076A
:1006A00003D5606840F4E06060602878000703D5F7
:1006B000606840F4605060606068A96820F0F000F5
:1006C000084360602878C00728D06868012810D0E7
:1006D0002168022810D0890700292EDA616821F0EC
:1006E000030101436160FFF723FF804641F288392F
:1006F0000DE021688903EFE78901EDE7FFF718FFB7
:10070000A0EB0801494502D90320BDE8F0876068E5
:10071000696800F00C00B0EB810FEFD1306800F099
:100720000700B8420BD9306820F00700384330602A
:10073000306800F00700B84201D00120E5E72878D2
:10074000400705D56068E96820F4E0600843606010
:100750002878000706D56068296920F4605040EACF
:10076000C100606000F038F86168084AC1F3031105
:10077000515CC8400649086006480068FFF7F8FE6B
:100780000020C2E700200240001002407E23000843
:10079000140000200C000020044805490068496846
:1007A000044AC1F30221515CC84070471400002084
:1007B000001002408E23000804480549006849687B
:1007C000044AC1F3C221515CC840704714000020A4
:1007D000001002408E2300080E4A51680E4801F0B6
:1007E0000C03042B11D0082B0FD10C48C1F3834309
:1007F000C903C05C0AD55168084AC1F34041921E42
:10080000515C054A5043B0FBF1F07047044948433E
:10081000704700000010024000127A006E230008AA
:1008200000093D002DE9F84F040070D02078C04D3C
:10083000C00749D06868C0F38100012807D0686804
:10084000C0F38100022809D16868C00306D5286872
:10085000800339D560680028E7D035E06068B0F5DE
:10086000803F0BD010B1B0F5A02F11D0286820F434
:1008700080302860286820F4802002E0286840F456
:1008800080302860606890B1FFF752FE06460AE0AB
:10089000286840F480202860F0E700BFFFF748FE9A
:1008A000801B642873D828688003F7D50CE0FFF715
:1008B0003FFE064605E000BFFFF73AFE801B6428B6
:1008C000F0D828688003F7D420789A4E80074FF03C
:1008D00001094FF0000839D5686810F00C0F07D0F7
:1008E0006868C0F38100022809D16868C00306D493
:1008F0002868800714D52069012808D110E02069F4
:10090000B0B1C6F80090FFF713FE074605E00AE114
:10091000FFF70EFEC01B0228C4D828688007F7D551
:100920002868616920F0F80040EAC10028600DE005
:10093000C6F80080FFF7FCFD074604E0FFF7F8FD6E
:10094000C01B022823D828688007F7D42078000726
:100950002CD57948A169D9B1C0F80090FFF7E8FD1E
:10096000074604E0FFF7E4FDC01B02280FD8686AC1
:100970008007F7D571484FF4FA510068B0FBF1F0E9
:10098000009000BF0098411E0091FAD20EE080E076
:10099000C0F80080FFF7CCFD074604E0FFF7C8FD74
:1009A000C01B022875D8686A8007F7D420784007F2
:1009B00060D5E8690027C00008D4E86940F080509D
:1009C000E861E869012700F0805000905C48016808
:1009D000C90513D40168834641F480710160FFF7B3
:1009E000A7FD824606E000BFFFF7A2FDA0EB0A00CC
:1009F00064284ED8DBF80000C005F5D5E068012872
:100A00000AD008B1052813D0286A20F00100286216
:100A1000286A20F0040002E0286A40F00100286201
:100A2000E06841F2883B98B1FFF782FD82460BE017
:100A3000286A40F004002862EEE700BFFFF778FD67
:100A4000A0EB0A0159455AD8286A8007F6D50CE070
:100A5000FFF76EFD824605E0FFF76AFDA0EB0A0195
:100A600059454CD8286A8007F6D41FB1E86920F0B0
:100A70008050E861E06988B36968C1F381010229A7
:100A800044D00228C6F8608004D0FFF751FD044628
:100A900038E034E0FFF74CFD074604E0FFF748FD7F
:100AA000C01B02282BD828688001F7D4206AB0F533
:100AB000803F05D16868A16820F400300843686071
:100AC000D4E908010843696821F474110843686097
:100AD000C6F86090FFF72CFD044606E025E000BF55
:100AE000FFF726FD001B022809D828688001F7D5EA
:100AF0001BE000BFFFF71CFD001B022802D90320EA
:100B0000BDE8F88F28688001F4D40EE00128F7D002
:100B10006868226A00F48031914204D1616A00F46D
:100B20007010884201D00120EAE70020E8E70000C9
:100B300000100240000042428004424214000020A3
:100B40000070004010B5401EB0F1807F01D301203D
:100B500010BD4FF0E02460610F21601701F068F8CC
:100B60000020A06107202061002010BD7047704761
:100B700070B590F83C20012A26D0012480F83C4032
:100B8000022280F83D2003685A689D6822F07006B2
:100B90000A6832435A600D4B02689A4208D0B2F19B
:100BA000804F05D00A4B9A4202D00A4B9A4204D198
:100BB000496825F080031943916080F83D40002189
:100BC00080F83C10084670BD022070BD002C01402A
:100BD000000400400008004090F83D10012901D0B9
:100BE00001207047022180F83D100168CA6842F078
:100BF0000102CA6000680B49884208D0B0F1804FFA
:100C000005D00949884202D00849884204D1816848
:100C100001F00701062903D0016841F001010160DC
:100C200000207047002C01400004004000080040F4
:100C30000168CA6822F00102CA6001680A6A41F2CA
:100C400011131A4207D10A6A9B101A4203D10A688B
:100C500022F001020A60012180F83D100020704757
:100C600070472DE9F04104460068C66805694FF0F9
:100C70000007A90713D5B10711D5F91E016101209D
:100C80002077206880698007204602D0FFF7E8FFC0
:100C900004E000F0A7F8204600F0EEF82777680798
:100CA00016D5700714D521686FF004000861022082
:100CB00020772068806910F4407F204602D0FFF73B
:100CC000CFFF04E000F08EF8204600F0D5F827773B
:100CD000280715D5300713D521686FF00800086183
:100CE000042020772068C0698007204602D0FFF7E3
:100CF000B7FF04E000F076F8204600F0BDF8277753
:100D0000E80616D5F00614D521686FF010000861CA
:100D1000082020772068C06910F4407F204602D068
:100D2000FFF79EFF04E000F05DF8204600F0A4F815
:100D30002777E80708D0F00706D021686FF0010098
:100D40000861204600F099F8280608D5300606D537
:100D500021686FF0800008612046FFF707FF6806F2
:100D600008D5700606D521686FF04000086120465E
:100D700000F084F8A8060AD5B00608D521686FF0FF
:100D8000200008612046BDE8F041FFF7F0BEBDE855
:100D9000F08170B5044690F83C00002501280FD082
:100DA000012084F83C006AB1042A0FD0082A11D02F
:100DB0000C2A13D00125002084F83C00284670BD81
:100DC000022070BD206800F01DFDF4E7206800F0EF
:100DD00041FDF0E7206800F069FDECE7206800F0D5
:100DE00091FDE8E7704710B5040003D094F83D008A
:100DF00010B107E0012010BD002084F83C0020461F
:100E000000F01EF8022084F83D00211D206800F04B
:100E1000BDFC012084F8460084F83E0084F83F00C1
:100E200084F8400084F8410084F8420084F84300CC
:100E300084F8440084F8450084F83D00002010BD8B
:100E400008B50068B0F1804F12D10A48C16941F07D
:100E50000101C161C069002200F00100009011464B
:100E60001C20FFF7D1FBBDE808401C20FFF7BEBBEC
:100E700008BD0000001002407047704770472DE920
:100E8000F84F044690F84200DDF828901F461546BA
:100E90000E46202802D00220BDE8F88FF6B1EDB151
:100EA0004FF00008C4F84480222184F84210012148
:100EB0002163C4F83480FFF73BFBA5858246E585B6
:100EC000A0684FF4805B584501D1206940B1354698
:100ED0000026A7F800804FF020083AE00120DBE769
:100EE0000025F6E720680168C9060AD5016841684F
:100EF0000091398829B10220606384F84280002083
:100F0000CAE70168890618D525B1A168594528D0D6
:100F100031B107E04068C0F3080026F8020B06E094
:100F20002169F1B1406800F07F0005F8010B3888B5
:100F3000401C3880E08D401EE085B9F1FF3F08D0AD
:100F4000FFF7F6FAA0EB0A0149450CD8B9F1000FFA
:100F500009D0E08D0028C5D1A08DE18D401A3880E0
:100F6000CBE74068E1E784F84280032094E718B5B6
:100F7000034690F84200202801D0022018BD61B13C
:100F80005AB10120186300205863184600F0DEFDB6
:100F90000028F3D1196B012901D0012018BD19686F
:100FA0000A684968009119680C3151E8002F42F035
:100FB000100241E80024002CF5D118BD024A01209E
:100FC00010700248018070470000002004000020DB
:100FD00070470000F8B5016804460868CA684B69A4
:100FE00010F00F0F4FF0000559D003F0010602F486
:100FF0009077374365D0C10705D0D10503D5616C23
:1010000041F001016164410705D5D90703D0616C46
:1010100041F002016164810705D5D90703D0616CF5
:1010200041F004016164010707D502F0200131435A
:1010300003D0616C41F008016164616C00293AD011
:10104000800604D5900602D5204600F0C2FC206838
:101050004069616CC0F38010090700D460B320467A
:1010600000F090FC20684069400621D520681430CB
:1010700050E8001F21F0400140E80012002AF5D19D
:10108000E06BA8B16D494163E06BFFF7F1F8002810
:1010900011D0E06B416B01B0BDE8F040084783061A
:1010A0000FD593060DD52046BDE8F84000F091BC61
:1010B0002046FFF78DFFF8BD2046FFF789FF6564E6
:1010C000F8BD266B2023012E7CD1C6067AD5D60624
:1010D00078D508684868009048694FF002064006D5
:1010E00040D5E16B086840680004000CE8D0A28D90
:1010F0008242E5D9E085886920282DD020680C300F
:1011000050E8001F21F4807140E80012002AF5D158
:101110002068143050E8001F21F0010140E800125F
:10112000002AF5D12068143050E8001F21F040015A
:1011300040E80012002AF5D184F842302563206887
:101140000C3050E8001F21F0100140E80012002A86
:10115000F5D1E06BFFF768F86663A08DE18D401A6A
:1011600081B22AE0A08DE18D401A81B2E08D002885
:10117000A6D00029A4D022680C3252E8000F20F437
:10118000907042E80007002FF5D12068143050E835
:10119000002F22F0010240E80027002FF5D184F84B
:1011A0004230256320680C3050E8002F22F01002F6
:1011B00040E80023002BF5D166632046FFF7FEFED2
:1011C000F8BDFFE705062BD5150629D594F8410093
:1011D0002128F5D1A068B0F5805F01D12069B0B1B8
:1011E000206A411C2162216800784860E08C401E22
:1011F0000004000CE084E3D12068C16821F0800184
:10120000C1602068C16841F04001C160D8E7206A30
:101210000088C0F308004860206A801C2062E5E76F
:101220004006CDD55006CBD5CA68204622F04002F4
:10123000CA6084F8413000F078F9C1E775190008F8
:1012400070B5040004D094F84100002510B106E008
:10125000012070BD84F84050204600F023F824207F
:1012600084F841002068C16821F40051C160204623
:1012700000F010FC2068016921F4904101612068B0
:10128000416921F02A0141612068C16841F400519F
:10129000C1606564202084F8410084F842006563E1
:1012A000002070BDF0B585B0002400940194029434
:1012B00003940368424F022042490322424D4602F2
:1012C000BB4225D18B6943F480438B618B6903F466
:1012D000804304938B6943F004038B618969039213
:1012E00001F0040104910102CDE90010694628468D
:1012F000FFF71CF8CDE90064694628460294FFF721
:1013000015F8002211462520FFF77EF9252028E058
:101310002E4FBB4229D1CB6943F40033CB61CB695B
:1013200003F4003304938B6943F004038B618969F0
:10133000039201F0040104910421CDE900106946F3
:101340002846FEF7F3FF0820CDE900046946284649
:101350000294FEF7EBFF002211462620FFF754F916
:101360002620FFF743F905B0F0BD194DAB42FAD185
:10137000CB6943F48023CB61CB6903F480230493CE
:101380008B6943F008038B618969124D01F00801F4
:10139000CDE90321CDE9006069462846FEF7C6FF86
:1013A000E814CDE90004694628460294FEF7BEFF22
:1013B000002211462720FFF727F92720D1E7000058
:1013C0000038014000100240000801400044004085
:1013D00000480040000C01402DE9F84F044690F809
:1013E00042009A4616460D46202802D00220BDE84B
:1013F000F88FB5B1AEB100206064222184F84210AC
:101400002063FFF795F8A6858146E685A0684FF42E
:1014100080582027404501D1206920B12E46002563
:1014200029E00120E3E7002625E04B4600222021A9
:101430002046CDF800A000F0A4FB18B184F842705B
:101440000320D4E726B1A06840451AD038B108E09F
:1014500020684068C0F3080025F8020B08E0206906
:1014600078B12068406800F07F0000BF06F8010BEB
:10147000E08D401EE085E08D0028D6D184F84270D2
:10148000B5E720684068F1E770472DE9F843044666
:1014900090F84100984616460D46202802D00220BA
:1014A000BDE8F88385B17EB100206064212084F816
:1014B0004100FFF73DF8A6848146E684A068202716
:1014C000B0F5805F02D003E00120E9E7206910B1A8
:1014D0002E4600250EE000260CE08021204600F07C
:1014E00050FBA8B9C6B116F8010B21684860E08C22
:1014F000401EE084E08C4B464FF00002CDF80080A7
:101500000028EAD14FF04001204600F03AFB40B1FC
:1015100084F841700320C3E735F8020BC0F30800DC
:10152000E3E784F841700020BAE77047FEE7000067
:10153000F0B585B0002424480094019402940394EB
:10154000816941F010018161816901F0100104910C
:10155000816941F020018161816901F020010491DC
:10156000816941F004018161816901F00401049104
:10157000816941F0080181618069144F00F0080021
:101580004FF400550490002229463846FEF7CBFF61
:101590000095032601250396CDE901546946384696
:1015A000FEF7C4FEAF0300970396CDE90154084C43
:1015B00069462046FEF7BAFE012239462046FEF76C
:1015C000B2FF05B0F0BD0000001002400010014065
:1015D000000C014010B58AB0002407941C21684615
:1015E0000894FEF7A8FD15484FF08041016041F6D0
:1015F0001F41C0E9011442F20F71C0E90314846174
:10160000FFF7F1FB08B1FEF70DFE079407A90B48A1
:101610000894FFF7ADFA08B1FEF704FE00940194B8
:1016200002940022694605480494FFF7B2FB0028A3
:1016300001D0FEF7F7FD0AB010BD0000B400002095
:101640000C4810B50A4901604FF4E13141600021B6
:1016500081600C22C160C0E904128161C161FFF7A1
:10166000EFFD002803D0BDE81040FEF7DBBD10BD44
:1016700000380140FC0000200C4810B50A49016008
:101680004FF4E1314160002181600C22C160C0E96A
:1016900004128161C161FFF7D3FD002803D0BDE8CA
:1016A0001040FEF7BFBD10BD0044004044010020C3
:1016B0000C4810B50A4901604FF4E1314160002146
:1016C00081600C22C160C0E904128161C161FFF731
:1016D000B7FD002803D0BDE81040FEF7A3BD10BD44
:1016E000004800408C010020FEE7FEE7704770478D
:1016F000FEF724BF30B58FB028216846FEF71BFDEA
:1017000014210AA8FEF717FD01210804CDE90010F5
:101710000024029402250491CDE907504FF4E01013
:1017200009906846FFF77EF808B172B6FEE70F2011
:10173000CDE90A054FF48060CDE90C4002210AA8EA
:101740000E94FEF793FF002801D072B6FEE70FB0AB
:1017500030BD704710B50A48FFF783FA09490122E6
:10176000087800B90A7008780523B0FBF3F403FB8E
:1017700014030BB9044B1A70401C087010BD000014
:10178000B40000200100002002000020F0B5026833
:10179000194B1A4C1A4D4FF08047984205D0B84269
:1017A00003D0A04201D0A84203D122F070064A68BB
:1017B0003243984205D0B84203D0A04201D0A8429B
:1017C00003D122F44074CA6822434C6922F080029B
:1017D000224302608A68C2620A688262984201D12A
:1017E00009690163012141610169C90703D00169E8
:1017F00021F001010161F0BD002C01400004004016
:101800000008004030B5036A026A22F00102026259
:101810004268846924F073050C682C4323F00205A8
:101820008B682B430A4DA8420BD123F00805CB68E7
:1018300022F440722B434D6923F0040315438A6957
:101840002A434260846149684163036230BD0000FD
:10185000002C014030B5026A036A23F010030362D2
:10186000436884690D6824F4E64444EA05248D68DD
:1018700022F0200242EA05120B4DA8420ED1CD689B
:1018800022F0800242EA05124D6923F4406343EAE4
:1018900085038D6922F0400243EA85034360846139
:1018A00049688163026230BD002C014030B5036A93
:1018B000026A22F4807202624268C46923F40073EF
:1018C00024F073050C682C438D6843EA05230C4D06
:1018D000A8420ED1CD6823F4006343EA05234D6985
:1018E00022F4405242EA05128D6923F4806342EAF1
:1018F00005124260C4614968C163036230BD0000E3
:10190000002C014030B5046A026A22F4805202625F
:101910004268C3690D6823F4E64343EA05238D68F2
:1019200024F4005444EA0534064DA84204D14D691C
:1019300022F4804242EA85124260C3614968016430
:10194000046230BD002C014070B5094D4FF4804455
:1019500021462846FEF7DAFD012806D0012221465D
:101960002846BDE87040FEF7DEBD0022F7E7000024
:10197000000C014010B5406A0021C185C184FFF709
:1019800027FB10BD01680C3151E8002F22F4907242
:1019900041E80023002BF5D10168143151E8002FF4
:1019A00022F0010241E80023002BF5D1016B01294F
:1019B00009D101680C3151E8002F22F0100241E8F2
:1019C0000023002BF5D1202180F842100021016373
:1019D000704708B590F84210222901D0022008BDB6
:1019E00082684FF480539A4201D1016921B1816A22
:1019F0009A421BD04AB10AE00268816A5268C2F377
:101A000008020A80816A891C08E0026972B10268D2
:101A1000526802F07F020A70816A491C8162C18D9E
:101A2000491E0904090CC18503D01BE002685268F5
:101A3000F1E70168CA6822F02002CA600168CA683A
:101A400022F48072CA6001684A6922F001024A6188
:101A5000202180F8421000214163026B012A03D04B
:101A6000FFF712FD002008BD016301680C3151E849
:101A7000002F22F0100241E80023002BF5D101686D
:101A80000A68D20602D50A6849680091818DFFF77D
:101A900095FAE7E770B5044600680169E26821F449
:101AA0004051114301612169A068084361690843FD
:101AB0002168CA6841F20C639A430243CA602068F5
:101AC0004169A26921F44071114341611E492068B6
:101AD000884202D1FEF770FE01E0FEF75DFE00EBEA
:101AE000C00101EB0012606864218000B2FBF0F3DA
:101AF000B3FBF1F36FF018067343B2FBF0F5B2FBE2
:101B0000F0F605EB8305322303EB0515B5FBF1F584
:101B1000B6FBF1F605F0F00505EB0615B2FBF0F6A5
:101B2000B2FBF0F0B0FBF1F06FF01802504306EB9F
:101B3000800003EB0010B0FBF1F0216800F00F0013
:101B40002844886070BD00000038014081628285B1
:101B5000C28500214164222180F84210016921B12F
:101B60000168CA6842F48072CA6001684A6942F03A
:101B700001024A610068C16841F02001C160002093
:101B800070472DE9F843984617460D460446089ECF
:101B900024E0701C22D0FEF7CBFCA0EB0800B04282
:101BA0001AD8CEB12068C168490717D5802D15D045
:101BB000402D13D00168C94309070FD401680025DF
:101BC000406800902046FFF7DDFE0820606484F83E
:101BD00040500120BDE8F8830320FBE7206800683F
:101BE00035EA000004D00020B842D2D00020F1E74E
:101BF0000120F9E70148FFF7EDB90000FC000020E3
:101C00000148FFF7E7B9000044010020FEE70000AB
:101C10000FB4054B10B503A9044A029800F028F848
:101C200010BC5DF814FB00008D2000081800002097
:101C30000907090E002804DB00F1E02080F80014F9
:101C4000704700F00F0000F1E02080F8141D70478D
:101C500002E008C8121F08C1002AFAD17047704775
:101C6000002001E001C1121F002AFBD170470000D3
:101C70002DE9FF4F8BB09A460F460546002606E039
:101C800025280BD052460D9990476D1C761C28785C
:101C90000028F5D10FB03046BDE8F08F0024A046F3
:101CA0000122604900E0044315F8013F203B02FA9D
:101CB00003F00842F7D128782E2817D115F8010F24
:101CC00044F004042A280ED06FF02F022878A0F1E7
:101CD000300109290AD808EB880102EB410100EB29
:101CE00001086D1CF2E757F8048B6D1C28786928F1
:101CF0003ED006DC0028CDD063280BD0642804D168
:101D000036E0732810D075284BD052460D99904775
:101D1000761C85E017F8040B8DF8000000208DF884
:101D20000100E946012003E057F8049B4FF0FF3023
:101D300061074FF0000401D40AE0641C44450DDA49
:101D40008442FADB19F804100029F6D106E0641C7D
:101D50008442FCDB19F804100029F8D1264404E081
:101D600019F8010B52460D999047641EF8D257E0BE
:101D700001CF4FF00A0B002802DA40422D2102E089
:101D8000210504D52B218DF82410012103E0E10762
:101D900005D02021F7E70DF1200908910CE0002182
:101DA000F9E701CF4FF00A0BF9E75946FEF7E7F9DB
:101DB00001F1300209F8012D0028F6D1ADEB090040
:101DC00000F1200B600701D44FF00108D84502DD77
:101DD000A8EB0B0000E000208046002406E009A8E4
:101DE0005246005D0D999047641C761C0898844209
:101DF000F5DB04E0302052460D999047761CB8F18F
:101E00000001A8F10108F5DC05E019F8010B5246C4
:101E10000D999047761CBBF10001ABF1010BF4DC8E
:101E20006D1C34E70928010010B58AB03CA0FFF70B
:101E3000EFFEFFF73DFC3EA000F018F94FF47A7476
:101E40002046FEF761FA3DA000F010F923460C226F
:101E500069463C48FFF7C0FA3BA16846FEF776F9B1
:101E6000002848D03AA0FFF7D3FE00200090019050
:101E700002902046FEF748FA39A000F0F7F841A09A
:101E8000FEF7A8F900283BD041A0FFF7C1FEFA20D9
:101E9000FEF73AFA43A000F0E9F84CA0FEF79AF9F1
:101EA00000282FD04CA0FFF7B3FEFA20FEF72CFA43
:101EB0004DA000F0DBF82346232269462148FFF7B6
:101EC0008BFA21A16846FEF741F9A0B120A0FFF7E7
:101ED0009FFEFA20FEF718FA47A000F0C7F84AA0C4
:101EE000FEF778F9B8B149A0FFF792FEFA20FEF7A5
:101EF0000BFA4BA010E04CA0FFF78AFE68460BE0FF
:101F00004BA009E04DA0FFF783FE514951A0FFF718
:101F10007FFE0AB010BD51A0FFF77AFEF9E700007E
:101F2000657370383236365F696E69740D0A000069
:101F300041542B5253540D0A0000000041540D0A25
:101F4000000000008C0100204F4B0D0A0000000033
:101F5000415420737563636573730D0A00000000BC
:101F600041542B43574A41503D226875617765695A
:101F7000313233222C223131313232323333332277
:101F80000D0A0000474F542049500D0A0000000080
:101F9000415443574A415020737563636573730D11
:101FA0000A00000041542B43495053544152543DC0
:101FB00022544350222C223137322E32302E3130EF
:101FC0002E33222C383038300D0A0000434F4E4E4D
:101FD0004543540D0A00000041545443502073758A
:101FE00063636573730D0A0041542B4349504D4F91
:101FF00044453D310D0A000041542B43495053459F
:102000004E440D0A000000003E00000041544349C8
:102010005053454E4420737563636573730D0A0016
:10202000646F6E650D0A00006572726F72000000C9
:10203000574946496572726F720D0A005443504306
:102040004F4E4E4543546572726F720D0A00000088
:10205000D401002025730D0A0000000043495053AD
:10206000454E446572726F720D0A000010B5044649
:10207000FEF77EF8214682B2BDE810404FF0FF33F4
:102080000148FFF702BA00008C01002013B54FF49D
:102090007A73012269460248FFF7F7F900981CBDE0
:1020A00044010020FEF752FAFFF724FBFFF740FA45
:1020B000FFF7C6FAFFF7E0FAFFF7B6FEFFF78AFA76
:1020C000C820FEF721F9202232217F48FEF72CF8A4
:1020D0004FF47A773B4601227CA17D48FFF7D5F982
:1020E000FFF732FC7B48FEF777FDDFF8DC817A4DA5
:1020F000A8F164084FF4005B002473493A46643940
:102100007348FEF734FF287888B159467348FEF7C4
:1021100002FA98F8023098F8012098F8001070A0A0
:10212000FFF776FD002000F0F3F82C7006E0A878A9
:102130000128E2D1AC7070A0FFF76AFD6C706548B1
:10214000FEF776FDFFF700FCC820FEF7DDF83B4602
:1021500001226CA15E48FFF798F95E48FEF73CFD4E
:10216000FFF7F2FB58493A4664395948FEF7FFFE3B
:10217000287888B159465948FEF7CDF998F80230C9
:1021800098F8012098F8001055A0FFF741FD0120B4
:1021900000F0BEF82C7006E0A8780128E2D1AC70FF
:1021A00055A0FFF735FDA9466C704A48FEF740FD83
:1021B000FFF7CAFB444E00252946725D52A0FFF787
:1021C00027FD6D1CEDB2322DF6D33F48FFF74EFFD1
:1021D000BA464D465746534601223CA13C48FFF7BC
:1021E00054F9FFF7B1FB3B48FEF7F6FC36493A4697
:1021F00064393748FEF7BBFE287888B1594637481E
:10220000FEF789F998F8023098F8012098F8001044
:1022100033A0FFF7FDFC002000F07AF82C7006E0F8
:10222000A8780128E2D1AC7033A0FFF7F1FC6C7004
:102230002848FEF7FDFCFFF787FBC820FEF764F88F
:102240003B4601222FA12248FFF71FF92148FEF744
:10225000C3FCFFF779FB1C493A4664391C48FEF77A
:1022600086FE287888B159461C48FEF754F998F83C
:10227000023098F8012098F8001019A0FFF7C8FC68
:10228000012000F045F82C7006E0A8780128E2D182
:10229000AC7019A0FFF7BCFC6C700E48FEF7C8FCD0
:1022A000FFF752FB0848FFF7E1FE00273946F25DD1
:1022B00015A0FFF7ADFC7F1CFFB2322FF6D341F221
:1022C0008830FEF721F885E780000020320000000A
:1022D000FC000020B400002000000020001001409D
:1022E00074656D702068756D693A256420256420D9
:1022F00025640D0A0000000074696D656F75740D2A
:102300000A0000003100000025643A25630D0A0030
:1023100030B5154A0A2100EBC005137802F16400BC
:10232000B3FBF1F400EB450030348473B3FBF1F4FC
:1023300001FB14333033C3735378B3FBF1F43034FF
:102340000475B3FBF1F401FB143330334375927819
:10235000B2FBF1F330338376B2FBF1F301FB1321CF
:102360003031C17630BD00001C00002001020203A4
:102370000405060708090A0B0C0D0E0F10100000CB
:102380000000000000000102030406070809000025
:102390000000010203040000B82300080000002030
:1023A0001C000000501C0008D42300081C00002062
:1023B0001C060000601C0008000000000000000077
:1023C00001000000100000000000000000127A0070
:0423D0000000000009
:04000005080000ED02
:00000001FF
