:020000040800F2
:10000000580500200501000833140008AD1200084F
:10001000311400089D010008551900080000000077
:10002000000000000000000000000000371400087D
:100030009F01000800000000351400083914000872
:100040001F0100081F0100081F0100081F01000810
:100050001F0100081F0100081F0100081F01000800
:100060001F0100081F0100081F0100081F010008F0
:100070001F0100081F0100081F0100081F010008E0
:100080001F0100081F0100081F0100081F010008D0
:100090001F0100081F0100081F0100081F010008C0
:1000A0001F0100081F0100081F0100081F010008B0
:1000B0009D1400081F0100081F0100081F0100080F
:1000C0001F0100081F0100081F0100081F01000890
:1000D0001F0100083D190008491900081F01000808
:1000E0001F0100081F0100081F010008DFF810D0E1
:1000F00000F042F800480047891B0008AFF3008079
:10010000580500200648804706480047FEE7FEE7FE
:10011000FEE7FEE7FEE7FEE7FEE7FEE7FEE7FEE7B7
:100120009B140008ED000008D2B201E000F8012B9A
:10013000491EFBD270470022F6E710B513460A4667
:1001400004461946FFF7F0FF204610BD30B50B46B8
:10015000014600202022012409E021FA02F59D42F7
:1001600005D303FA02F5491B04FA02F52844151ECB
:10017000A2F10102F1DC30BD064C074D06E0E0685B
:1001800040F0010394E8070098471034AC42F6D3DE
:10019000FFF7B0FF401D0008601D0008FEE7704734
:1001A00072B6FEE710B590F821100022022905D0A2
:1001B0000421816380F82020012010BD01680B68B4
:1001C00023F00E030B6001680B6823F001030B6042
:1001D00090F84030C46B012101FA03F3636080F8AA
:1001E000211080F82020104610BD000010B590F8B6
:1001F00021100024022903D00421816301243DE061
:1002000001680A6822F00E020A6001680A6822F09A
:1002100001020A601A4A0168914201D1012121E0DC
:10022000174A1432914201D110211BE0144A28329E
:10023000914201D1891515E0114A3C32914201D118
:1002400089140FE00E4A5032914202D14FF48031AE
:1002500008E00B4A6432914202D14FF4801101E070
:100260004FF08071064A083A5160012180F8211050
:10027000002180F82010416B01B18847204610BD55
:100280000800024070B5044600F010F90546601CF5
:1002900002D004480078044400F008F9401BA04252
:1002A000FAD370BD080000202DE9F84FDFF8B891AF
:1002B0000024A9F1040B23460F2709F1040AABF12E
:1002C000040EC9E00125A5402A40AA427DD1674E0F
:1002D000D1F804C0ACEB0608B44532D014DCBCF154
:1002E000030F3AD009DCBCF1000F2AD0BCF1010F9A
:1002F0001CD0BCF1020F31D11DE0BCF1110F17D0A1
:10030000BCF1120F2AD119E0B8F5881F19D006DC0C
:10031000B8F5803F15D0B8F5801F1FD111E0B8F5B2
:10032000001F0ED0B8F5041F18D10AE0CB6815E005
:10033000CB681B1D12E0CB6808330FE0CB680C3391
:100340000CE08B682BB1012B4FF0080303D0456103
:1003500004E0042302E0056100E00023FF2A01D845
:10036000064601E000F104064FEA840501D9A5F133
:100370002005D6F8008007FA05FC28EA0C0803FAE5
:1003800005F548EA0508C6F800804D68ED0062D51D
:10039000374DAE6946F00106AE61AD6924F0030643
:1003A00005F001050095334D06EB050CDCF808500F
:1003B000A607360F07FA06F825EA0805DFF8B88021
:1003C000404503D14FF0000817E044E0DFF8AC806F
:1003D000404502D14FF001080FE0DFF8A48040450E
:1003E00002D14FF0020808E0DFF89880404502D1C2
:1003F0004FF0030801E04FF0040808FA06F848EA55
:100400000508CCF808804D68D9F80060ED024D462B
:1004100001D5164300E096432E604D68DAF800607F
:10042000AD02554601D5164300E096432E604D6857
:10043000DBF80060AD035D4601D5164300E096434E
:100440002E604D68DEF80060ED03754601D5164359
:1004500000E096432E60641C0D682A46E5407FF458
:1004600031AFBDE8F88F0000080401400000111012
:10047000001002400000014000080140000C014053
:1004800000100140001401408068084000D00120A5
:100490007047C26821EA02030A4043EA024101614F
:1004A00070470AB1016170470904FBE701488068A1
:1004B000704700000800002002488168027811445B
:1004C0008160704708000020074810B5016841F0BE
:1004D00010010160032000F075F80F2000F006F80D
:1004E00000F024F8002010BD0020024070B50D4D32
:1004F00004464FF47A712878B1FBF0F00A49096894
:10050000B1FBF0F000F0DCFA48B9102C07D2002261
:100510002146501E00F036F800206C6070BD0120AE
:1005200070BD000008000020140000200C4808B531
:10053000816941F001018161816901F0010100914E
:10054000C16941F08051C161C06900F080500090E4
:100550000448416821F0E06141F00071416008BD4C
:100560000010024000000140002809DB00F01F02DB
:10057000012191404009800000F1E020C0F8001105
:1005800070470000F0B40E4B1B680C46C3F3022307
:10059000C3F10705042D00D90425191D072901D22F
:1005A000002300E0DB1E012606FA05F1491E21406A
:1005B00099409E40761E16403143F0BC01F0DCB9F4
:1005C0000CED00E0064900F0070208684FF6FF0353
:1005D000184040EA0220034A1043086070470000B8
:1005E0000CED00E00000FA052DE9F0470F4605008C
:1005F00061D0434E306800F00700B84209D230683D
:1006000020F0070038433060306800F00700B8423F
:1006100051D128683B4C810712D5400703D560684B
:1006200040F4E06060602878000703D5606840F41B
:10063000605060606068A96820F0F0000843606066
:100640002878C00728D06868012810D021680228BF
:1006500010D0890700292EDA616821F003010143D7
:100660006160FFF723FF804641F288390DE0216881
:100670008903EFE78901EDE7FFF718FFA0EB080119
:10068000494502D90320BDE8F0876068696800F039
:100690000C00B0EB810FEFD1306800F00700B842DA
:1006A0000BD9306820F0070038433060306800F024
:1006B0000700B84201D00120E5E72878400705D5BA
:1006C0006068E96820F4E06008436060287800070B
:1006D00006D56068296920F4605040EAC100606076
:1006E00000F038F86168084AC1F30311515CC84052
:1006F0000649086006480068FFF7F8FE0020C2E7D8
:100700000020024000100240261D000814000020B6
:100710000C0000200448054900684968044AC1F3F8
:100720000221515CC84070471400002000100240B4
:10073000361D00080448054900684968044AC1F3A9
:10074000C221515CC84070471400002000100240D4
:10075000361D00080E4A51680E4801F00C03042BA8
:1007600011D0082B0FD10C48C1F38343C903C05CDF
:100770000AD55168084AC1F34041921E515C054AAE
:100780005043B0FBF1F07047044948437047000004
:100790000010024000127A00161D000800093D00FA
:1007A0002DE9F84F040070D02078C04DC00749D023
:1007B0006868C0F38100012807D06868C0F3810031
:1007C000022809D16868C00306D52868800339D596
:1007D00060680028E7D035E06068B0F5803F0BD056
:1007E00010B1B0F5A02F11D0286820F48030286017
:1007F000286820F4802002E0286840F480302860D7
:10080000606890B1FFF752FE06460AE0286840F49F
:1008100080202860F0E700BFFFF748FE801B6428B7
:1008200073D828688003F7D50CE0FFF73FFE064633
:1008300005E000BFFFF73AFE801B6428F0D8286867
:100840008003F7D420789A4E80074FF001094FF0CB
:10085000000839D5686810F00C0F07D06868C0F33D
:100860008100022809D16868C00306D4286880077F
:1008700014D52069012808D110E02069B0B1C6F86C
:100880000090FFF713FE074605E00AE1FFF70EFEB2
:10089000C01B0228C4D828688007F7D5286861697A
:1008A00020F0F80040EAC10028600DE0C6F80080A2
:1008B000FFF7FCFD074604E0FFF7F8FDC01B022828
:1008C00023D828688007F7D4207800072CD57948EA
:1008D000A169D9B1C0F80090FFF7E8FD074604E030
:1008E000FFF7E4FDC01B02280FD8686A8007F7D520
:1008F00071484FF4FA510068B0FBF1F0009000BF6E
:100900000098411E0091FAD20EE080E0C0F800800D
:10091000FFF7CCFD074604E0FFF7C8FDC01B022827
:1009200075D8686A8007F7D42078400760D5E869F1
:100930000027C00008D4E86940F08050E861E86909
:10094000012700F0805000905C480168C90513D46D
:100950000168834641F480710160FFF7A7FD82467C
:1009600006E000BFFFF7A2FDA0EB0A0064284ED806
:10097000DBF80000C005F5D5E06801280AD008B111
:10098000052813D0286A20F001002862286A20F088
:10099000040002E0286A40F001002862E06841F2A9
:1009A000883B98B1FFF782FD82460BE0286A40F051
:1009B00004002862EEE700BFFFF778FDA0EB0A0114
:1009C00059455AD8286A8007F6D50CE0FFF76EFD26
:1009D000824605E0FFF76AFDA0EB0A0159454CD8B5
:1009E000286A8007F6D41FB1E86920F08050E861DA
:1009F000E06988B36968C1F38101022944D0022803
:100A0000C6F8608004D0FFF751FD044638E034E0BA
:100A1000FFF74CFD074604E0FFF748FDC01B022826
:100A20002BD828688001F7D4206AB0F5803F05D123
:100A30006868A16820F4003008436860D4E90801C0
:100A40000843696821F4741108436860C6F860902F
:100A5000FFF72CFD044606E025E000BFFFF726FD6A
:100A6000001B022809D828688001F7D51BE000BFC9
:100A7000FFF71CFD001B022802D90320BDE8F88FF8
:100A800028688001F4D40EE00128F7D06868226A53
:100A900000F48031914204D1616A00F47010884200
:100AA00001D00120EAE70020E8E700000010024042
:100AB00000004242800442421400002000700040C6
:100AC00010B5401EB0F1807F01D3012010BD4FF062
:100AD000E02460610F21601700F04EFF0020A0614C
:100AE00007202061002010BD7047704770B590F856
:100AF0003C20012A26D0012480F83C40022280F8C4
:100B00003D2003685A689D6822F070060A683243E7
:100B10005A600D4B02689A4208D0B2F1804F05D05E
:100B20000A4B9A4202D00A4B9A4204D1496825F0F6
:100B300080031943916080F83D40002180F83C100B
:100B4000084670BD022070BD002C0140000400402A
:100B50000008004090F83D10012901D001207047A5
:100B6000022180F83D100168CA6842F00102CA60A3
:100B700000680B49884208D0B0F1804F05D0094980
:100B8000884202D00849884204D1816801F00701F7
:100B9000062903D0016841F001010160002070477F
:100BA000002C014000040040000800400168CA68B1
:100BB00022F00102CA6001680A6A41F211131A4266
:100BC00007D10A6A9B101A4203D10A6822F0010277
:100BD0000A60012180F83D100020704770472DE920
:100BE000F04104460068C66805694FF00007A90790
:100BF00013D5B10711D5F91E0161012020772068B6
:100C000080698007204602D0FFF7E8FF04E000F08B
:100C1000A7F8204600F0EEF82777680716D570078A
:100C200014D521686FF00400086102202077206845
:100C3000806910F4407F204602D0FFF7CFFF04E028
:100C400000F08EF8204600F0D5F82777280715D554
:100C5000300713D521686FF0080008610420207761
:100C60002068C0698007204602D0FFF7B7FF04E084
:100C700000F076F8204600F0BDF82777E80616D594
:100C8000F00614D521686FF0100008610820207765
:100C90002068C06910F4407F204602D0FFF79EFF15
:100CA00004E000F05DF8204600F0A4F82777E8079C
:100CB00008D0F00706D021686FF0010008612046D7
:100CC00000F099F8280608D5300606D521686FF09F
:100CD000800008612046FFF707FF680608D5700608
:100CE00006D521686FF040000861204600F084F8C6
:100CF000A8060AD5B00608D521686FF02000086163
:100D00002046BDE8F041FFF7F0BEBDE8F08170B5C8
:100D1000044690F83C00002501280FD0012084F8FB
:100D20003C006AB1042A0FD0082A11D00C2A13D033
:100D30000125002084F83C00284670BD022070BDCB
:100D4000206800F003FCF4E7206800F027FCF0E7DF
:100D5000206800F04FFCECE7206800F077FCE8E743
:100D6000704710B5040003D094F83D0010B107E0BF
:100D7000012010BD002084F83C00204600F01EF841
:100D8000022084F83D00211D206800F0A3FB012013
:100D900084F8460084F83E0084F83F0084F8400060
:100DA00084F8410084F8420084F8430084F8440049
:100DB00084F8450084F83D00002010BD08B50068A7
:100DC000B0F1804F12D10A48C16941F00101C161FF
:100DD000C069002200F00100009011461C20FFF7BE
:100DE000D1FBBDE808401C20FFF7BEBB08BD0000DA
:100DF0000010024070477047704718B5034690F8DE
:100E00004200202801D0022018BD61B15AB1012052
:100E1000186300205863184600F03CFD0028F3D109
:100E2000196B012901D0012018BD19680A684968A9
:100E3000009119680C3151E8002F42F0100241E88E
:100E40000024002CF5D118BD024A01201070024880
:100E5000018070470000002004000020704700005F
:100E6000F8B5016804460868CA684B6910F00F0FAE
:100E70004FF0000559D003F0010602F49077374394
:100E800065D0C10705D0D10503D5616C41F00101E2
:100E90006164410705D5D90703D0616C41F00201B7
:100EA0006164810705D5D90703D0616C41F0040165
:100EB0006164010707D502F02001314303D0616C62
:100EC00041F008016164616C00293AD0800604D5C4
:100ED000900602D5204600F020FC20684069616C35
:100EE000C0F38010090700D460B3204600F0EEFB89
:100EF00020684069400621D52068143050E8001F62
:100F000021F0400140E80012002AF5D1E06BA8B1C1
:100F10006D494163E06BFFF769F9002811D0E06B80
:100F2000416B01B0BDE8F040084783060FD593063A
:100F30000DD52046BDE8F84000F0EFBB2046FFF796
:100F40008DFFF8BD2046FFF789FF6564F8BD266B6D
:100F50002023012E7CD1C6067AD5D60678D508681E
:100F60004868009048694FF00206400640D5E16BA2
:100F7000086840680004000CE8D0A28D8242E5D9E0
:100F8000E085886920282DD020680C3050E8001FAB
:100F900021F4807140E80012002AF5D12068143055
:100FA00050E8001F21F0010140E80012002AF5D1AD
:100FB0002068143050E8001F21F0400140E8001282
:100FC000002AF5D184F84230256320680C3050E8BF
:100FD000001F21F0100140E80012002AF5D1E06B5B
:100FE000FFF7E0F86663A08DE18D401A81B22AE038
:100FF000A08DE18D401A81B2E08D0028A6D0002995
:10100000A4D022680C3252E8000F20F4907042E81D
:101010000007002FF5D12068143050E8002F22F08F
:10102000010240E80027002FF5D184F84230256303
:1010300020680C3050E8002F22F0100240E8002316
:10104000002BF5D166632046FFF7FEFEF8BDFFE7F3
:1010500005062BD5150629D594F841002128F5D190
:10106000A068B0F5805F01D12069B0B1206A411C51
:101070002162216800784860E08C401E0004000C6A
:10108000E084E3D12068C16821F08001C16020685C
:10109000C16841F04001C160D8E7206A0088C0F310
:1010A00008004860206A801C2062E5E74006CDD534
:1010B0005006CBD5CA68204622F04002CA6084F8A8
:1010C000413000F0F2F8C1E7BD16000870B5040029
:1010D00004D094F84100002510B106E0012070BD55
:1010E00084F84050204600F023F8242084F8410082
:1010F0002068C16821F40051C160204600F06EFBF9
:101100002068016921F4904101612068416921F062
:101110002A0141612068C16841F40051C1606564E1
:10112000202084F8410084F842006563002070BDEF
:1011300070B586B0002400940194029403942E4E5E
:1011400003682E49022003222D4DB34226D18B691C
:1011500043F480438B618B6903F4804304938B6970
:1011600043F004038B618969039201F00401049147
:101170000102CDE9001069462846FFF795F82815C9
:10118000CDE90004694628460294FFF78DF8002255
:1011900011462520FFF7F6F9252028E0194EB34225
:1011A00027D1CB6943F40033CB61CB6903F400331F
:1011B00004938B6943F004038B618969039201F006
:1011C000040104910421CDE9001069462846FFF787
:1011D0006BF80820CDE90004694628460294FFF721
:1011E00063F8002211462620FFF7CCF92620FFF7EE
:1011F000BBF906B070BD000000380140001002408D
:10120000000801400044004070472DE9F8430446BF
:1012100090F84100984616460D46202802D002203C
:10122000BDE8F88385B17EB100206064212084F898
:101230004100FFF73BF9A6848146E684A068202799
:10124000B0F5805F02D003E00120E9E7206910B12A
:101250002E4600250EE000260CE08021204600F0FE
:1012600034FBA8B9C6B116F8010B21684860E08CC0
:10127000401EE084E08C4B464FF00002CDF8008029
:101280000028EAD14FF04001204600F01EFB40B19B
:1012900084F841700320C3E735F8020BC0F308005F
:1012A000E3E784F841700020BAE77047FEE70000EA
:1012B000F0B585B00024244800940194029403946E
:1012C000816941F010018161816901F0100104918F
:1012D000816941F020018161816901F0200104915F
:1012E000816941F004018161816901F00401049187
:1012F000816941F0080181618069144F00F00800A4
:101300004FF400550490002229463846FFF7C9F8EB
:101310000095032601250396CDE901546946384618
:10132000FEF7C2FFAF0300970396CDE90154084CC6
:1013300069462046FEF7B8FF012239462046FFF7EE
:10134000B0F805B0F0BD00000010024000100140F0
:10135000000C014010B58AB0002407941C21684697
:101360000894FEF7E8FE15484FF08041016041F611
:101370001F41C0E9011442F20F71C0E903148461F6
:10138000FFF7EFFC08B1FEF70BFF079407A90B4826
:101390000894FFF7ABFB08B1FEF702FF009401943D
:1013A00002940022694605480494FFF7B0FC002827
:1013B00001D0FEF7F5FE0AB010BD0000800000204D
:1013C0000C4810B50A4901604FF4E1314160002139
:1013D00081600C22C160C0E904128161C161FFF724
:1013E00075FE002803D0BDE81040FEF7D9BE10BD41
:1013F00000380140C80000200C4810B50A490160BF
:101400004FF4E1314160002181600C22C160C0E9EC
:1014100004128161C161FFF759FE002803D0BDE8C5
:101420001040FEF7BDBE10BD00440040100100207A
:10143000FEE7FEE770477047FFF73EB830B58FB064
:1014400028216846FEF777FE14210AA8FEF773FEEE
:1014500001210804CDE90010002402940225049122
:10146000CDE907504FF4E01009906846FFF798F96E
:1014700008B172B6FEE70F20CDE90A054FF480608F
:10148000CDE90C4002210AA80E94FFF7ADF8002820
:1014900001D072B6FEE70FB030BD704710B50A48F4
:1014A000FFF79DFB09490122087800B90A70087806
:1014B0000523B0FBF3F403FB14030BB9044B1A70C0
:1014C000401C087010BD00008000002001000020BA
:1014D00002000020F0B50268194B1A4C1A4D4FF06B
:1014E0008047984205D0B84203D0A04201D0A8421C
:1014F00003D122F070064A683243984205D0B842C0
:1015000003D0A04201D0A84203D122F44074CA689B
:1015100022434C6922F08002224302608A68C26240
:101520000A688262984201D109690163012141611F
:101530000169C90703D0016921F001010161F0BD12
:10154000002C0140000400400008004030B5036A50
:10155000026A22F0010202624268846924F0730583
:101560000C682C4323F002058B682B430A4DA842DC
:101570000BD123F00805CB6822F440722B434D6950
:1015800023F0040315438A692A4342608461496851
:101590004163036230BD0000002C014030B5026A97
:1015A000036A23F010030362436884690D6824F41E
:1015B000E64444EA05248D6822F0200242EA05123E
:1015C0000B4DA8420ED1CD6822F0800242EA0512EE
:1015D0004D6923F4406343EA85038D6922F040029C
:1015E00043EA85034360846149688163026230BDD8
:1015F000002C014030B5036A026A22F48072026254
:101600004268C46923F4007324F073050C682C430A
:101610008D6843EA05230C4DA8420ED1CD6823F412
:10162000006343EA05234D6922F4405242EA051261
:101630008D6923F4806342EA05124260C4614968FF
:10164000C163036230BD0000002C014030B5046A64
:10165000026A22F4805202624268C3690D6823F470
:10166000E64343EA05238D6824F4005444EA053434
:10167000064DA84204D14D6922F4804242EA851207
:101680004260C36149680164046230BD002C0140BE
:1016900070B5094D4FF4804421462846FEF7F4FE0C
:1016A000012806D0012221462846BDE87040FEF7F9
:1016B000F8BE0022F7E70000000C014010B5406AB8
:1016C0000021C185C184FFF7C9FB10BD01680C3141
:1016D00051E8002F22F4907241E80023002BF5D14D
:1016E0000168143151E8002F22F0010241E8002383
:1016F000002BF5D1016B012909D101680C3151E8AA
:10170000002F22F0100241E80023002BF5D1202108
:1017100080F8421000210163704708B590F842102C
:10172000222901D0022008BD82684FF480539A42DA
:1017300001D1016921B1816A9A421BD04AB10AE004
:101740000268816A5268C2F308020A80816A891CB1
:1017500008E0026972B10268526802F07F020A7002
:10176000816A491C8162C18D491E0904090CC18529
:1017700003D01BE002685268F1E70168CA6822F0F2
:101780002002CA600168CA6822F48072CA600168D7
:101790004A6922F001024A61202180F842100021AA
:1017A0004163026B012A03D0FFF72EFD002008BD24
:1017B000016301680C3151E8002F22F0100241E86A
:1017C0000023002BF5D101680A68D20602D50A6809
:1017D00049680091818DFFF737FBE7E770B5044654
:1017E00000680169E26821F44051114301612169F7
:1017F000A0680843616908432168CA6841F20C6324
:101800009A430243CA6020684169A26921F4407189
:10181000114341611E492068884202D1FEF78AFFC8
:1018200001E0FEF777FF00EBC00101EB00126068FA
:1018300064218000B2FBF0F3B3FBF1F36FF0180604
:101840007343B2FBF0F5B2FBF0F605EB83053223F0
:1018500003EB0515B5FBF1F5B6FBF1F605F0F00568
:1018600005EB0615B2FBF0F6B2FBF0F0B0FBF1F0C1
:101870006FF01802504306EB800003EB0010B0FB42
:10188000F1F0216800F00F002844886070BD00006E
:101890000038014081628285C28500214164222195
:1018A00080F84210016921B10168CA6842F480726F
:1018B000CA6001684A6942F001024A610068C16871
:1018C00041F02001C160002070472DE9F84398469F
:1018D00017460D460446089E24E0701C22D0FEF7F1
:1018E000E5FDA0EB0800B0421AD8CEB12068C1686F
:1018F000490717D5802D15D0402D13D00168C94355
:1019000009070FD401680025406800902046FFF7C2
:10191000DDFE0820606484F840500120BDE8F883B3
:101920000320FBE72068006835EA000004D00020AF
:10193000B842D2D00020F1E70120F9E70148FFF7D3
:101940008FBA0000C80000200148FFF789BA0000E4
:1019500010010020FEE700000FB4054B10B503A9ED
:10196000044A029800F028F810BC5DF814FB00004F
:10197000711B0008180000200907090E002804DB6D
:1019800000F1E02080F80014704700F00F0000F133
:10199000E02080F8141D704702E008C8121F08C13B
:1019A000002AFAD170477047002001E001C1121FE0
:1019B000002AFBD1704700002DE9FF4F8BB09A46FB
:1019C0000F460546002606E025280BD052460D9905
:1019D00090476D1C761C28780028F5D10FB0304652
:1019E000BDE8F08F0024A0460122604900E00443D6
:1019F00015F8013F203B02FA03F00842F7D128789E
:101A00002E2817D115F8010F44F004042A280ED00F
:101A10006FF02F022878A0F1300109290AD808EBCD
:101A2000880102EB410100EB01086D1CF2E757F859
:101A3000048B6D1C287869283ED006DC0028CDD0A8
:101A400063280BD0642804D136E0732810D07528A1
:101A50004BD052460D999047761C85E017F8040B41
:101A60008DF8000000208DF80100E946012003E018
:101A700057F8049B4FF0FF3061074FF0000401D48A
:101A80000AE0641C44450DDA8442FADB19F80410BC
:101A90000029F6D106E0641C8442FCDB19F804102E
:101AA0000029F8D1264404E019F8010B52460D999B
:101AB0009047641EF8D257E001CF4FF00A0B002880
:101AC00002DA40422D2102E0210504D52B218DF8B8
:101AD0002410012103E0E10705D02021F7E70DF1F3
:101AE000200908910CE00021F9E701CF4FF00A0B23
:101AF000F9E75946FEF72AFB01F1300209F8012DFA
:101B00000028F6D1ADEB090000F1200B600701D4ED
:101B10004FF00108D84502DDA8EB0B0000E00020E3
:101B20008046002406E009A85246005D0D999047C2
:101B3000641C761C08988442F5DB04E03020524691
:101B40000D999047761CB8F10001A8F10108F5DC69
:101B500005E019F8010B52460D999047761CBBF130
:101B60000001ABF1010BF4DC6D1C34E70928010026
:101B700013B54FF47A73012269460248FFF745FB1B
:101B800000981CBD10010020FEF79EFCFFF756FCDC
:101B9000FFF78EFBFFF714FCFFF72EFCFFF7DAFBD5
:101BA000C820FEF76FFB4FF47A763346012242A13C
:101BB0004248FFF72AFBFFF76BFD4148FEF7CAFFDB
:101BC000404CDFF8048100254FF4005732463F496E
:101BD0003A48FFF712F9207848B139464046FEF7F7
:101BE00058FC3A493AA0FFF7B7FE257006E0A07806
:101BF0000128EBD1A57038A0FFF7AEFE6570304824
:101C0000FEF7D4FFFFF744FDC820FEF73BFB334649
:101C1000012234A12948FFF7F8FA2948FEF79AFF74
:101C2000FFF736FD324629492448FFF7E6F82078C9
:101C3000C8B139464046FEF72CFC244924A0FFF7E2
:101C40008BFE29A0FFF788FEA18829A0FFF784FE5C
:101C5000A088022805D11D484278017827A0FFF707
:101C60007BFE257006E0A0780128DBD1A5701AA0C4
:101C7000FFF772FE65701248FEF798FFFFF708FD48
:101C8000B14646464FF4FA784A4610490B48FFF7EA
:101C9000B4F8207840B139463046FEF7FAFB0B49DC
:101CA0000BA0FFF759FE25704046FEF7EBFA3946C8
:101CB0003046FEF7EEFBE7E732000000C8000020E8
:101CC0008000002000000020001001401C000020C7
:101CD00025730D0A0000000074696D656F75740D41
:101CE0000A00000031000000746573740D0A0000E2
:101CF0006C656E2069732025640D0A0068756D6936
:101D00002074656D702069732025642025640D0A98
:101D100000000000010202030405060708090A0B7F
:101D20000C0D0E0F1010000000000000000001025A
:101D30000304060708090000000001020304000074
:101D4000601D0008000000201C0000009819000819
:101D50007C1D00081C0000203C050000A81900089C
:101D60000000000000000000010000001000000062
:0C1D70000000000000127A0000000000DB
:04000005080000ED02
:00000001FF
